:100000000C94C80C0C94E60C0C94E60C0C94E60CC6
:100010000C94E60C0C94E60C0C94E60C0C94FB2867
:100020000C94E60C0C94E60C0C94E60C0C94E60C88
:100030000C94E60C0C94E60C0C94E60C0C94E60C78
:100040000C94E60C0C94E60C0C94E60C0C94E60C68
:100050000C94E60C0C94E60C0C94E60C0C94E60C58
:100060000C94E60C0C94E60C526473004367730026
:10007000567468002D6368006465702E00656E68B4
:100080002E00565F47540053435200546F74207A39
:1000900069656E7321006F6B007A77616B006C612C
:1000A00061670042617400436F6E74726F6C6573B8
:1000B0006F6D0064503C281405006810A00F0A0FF3
:1000C000A60E420EAC0DE40C6765656E206163639D
:1000D0007500566261743D0054657374656E2E2E12
:1000E0002E00426174746572696A3F0044696F64EE
:1000F00065002D06072D004963656F005662650097
:1001000068464500504E50004E504E00565F4753D3
:10011000286F666629004964737300464554004D94
:100120004F5300494742540032207765657273741B
:10013000616E64656E00576565727374616E64000C
:1001400053706F656C00496C656B3D004553523DC3
:1001500000436F6E64656E7361746F72000000100F
:10016000000000100000E01300001C1C00000370E1
:10017000008000900040001001200C0802100C04C8
:1001800004100C0204080C0108088C0008084C003C
:1001900008042C0010041C0010FF0F0010041C00A9
:1001A00010042C0010084C0008088C0408080C07E8
:1001B00008100C0704108C0704200C0802400010E3
:1001C000018000900000037000001C1C0000E01380
:1001D00000000010000000100000000000000010EF
:1001E000000000100000E01300001C1C0000037061
:1001F00000800090004000100120000802108C04D4
:1002000004108C0304088C0308088C0708084C00B1
:1002100008042C0010041C0010FF0F0010041C0028
:1002200010042C0010084C0008088C0008080C0171
:1002300008100C0204100C040420000802400010F6
:10024000018000900000037000001C1C0000E013FF
:10025000000000100000001000000000000000106E
:10026000000000100000E01300001C1C00000370E0
:100270000080009000401010012010100210F41FA8
:1002800004101400040814000808040008080400FE
:1002900008041402100414031004F41F10041413AF
:1002A0001004141210080410080804100808141090
:1002B0000810141004FFF71F042010100240101043
:1002C000018000900000037000001C1C0000E0137F
:1002D00000000010000000100000000000000010EE
:1002E000000000100000E01300001C1C0000037060
:1002F00000800090004010100120101002FFF71F36
:10030000041014100408141008080410080804103D
:1003100008041411100414131004F41F100414031F
:100320001004140110080400080804000808140050
:10033000081014000410F41F0420101002401010C4
:10034000018000900000037000001C1C0000E013FE
:10035000000000100000001000000000000000106D
:10036000000000100000E01300001C1C00000370DF
:100370000080009000401010012010100210F41FA7
:1003800004101400040814000808140008081400DD
:1003900008041402100414031004F41F10041413AE
:1003A000100414121008141008081410080814106F
:1003B0000810141004FFF71F042010100240101042
:1003C000018000900000037000001C1C0000E0137E
:1003D00000000010000000100000000000000010ED
:1003E000000000100000E01300001C1C000003705F
:1003F00000800090004010100120101002FFF71F35
:10040000041014100408141008081410080814101C
:1004100008041411100414131004F41F100414031E
:10042000100414011008140008081400080814002F
:10043000081014000410F41F0420101002401010C3
:10044000018000900000037000001C1C0000E013FD
:10045000000000100000001000000000000000106C
:10046000000000100000E01300001C1C00000370DE
:1004700000800090004000100120101002101010A9
:100480000410F01F040810000808100008081000ED
:1004900008041000100410001004100010041000D4
:1004A00010041000100810000808120008081600B8
:1004B00008FFFF1F04101610042012100240001045
:1004C000018000900000037000001C1C0000E0137D
:1004D00000000010000000100000000000000010EC
:1004E000000000100000E01300001C1C000003705E
:1004F0000080009000400010012012100210131024
:1005000004FFFF1F04081300080812000808100069
:100510000804100010041000100410001004100053
:10052000100410001008100008081000080810003F
:100530000810F01F041010100420101002400010CA
:10054000018000900000037000001C1C0000E013FC
:10055000000000100000001000000000000000106B
:10056000000000100000E01300001C1C00000370DD
:1005700000800090004000100120080802100A04CA
:1005800004100A0204080A0108088A0008084A0040
:1005900008042A0010041A0010FF0B0010041A00AF
:1005A00010042A0010084A0008088A0408080A07EC
:1005B00008100A0704108A070420080802400010E7
:1005C000018000900000037000001C1C0000E0137C
:1005D00000000010000000100000000000000010EB
:1005E000000000100000E01300001C1C000003705D
:1005F00000800090004000100120000802108804D4
:1006000004108A0304088A0308088A0708084A00B5
:1006100008042A0010041A0010FF0B0010041A002E
:1006200010042A0010084A0008088A0008080A0175
:1006300008100A02041008040420000802400010F8
:10064000018000900000037000001C1C0000E013FB
:10065000000000100000001000000000000000007A
:10066000000080000000800000008000000080008A
:10067000000080000000800000008000000080007A
:1006800000C0FFFF0180FFFF0000FF7F0000FE3F72
:100690000000FC1F0000F80F0000F0070000E0035E
:1006A0000000C0010000800000C0FFFF0100C0008A
:1006B0000000A000000090000000880000008400FE
:1006C0000000820000FF8100000080000000800028
:1006D000000080000000800000000000000000001A
:1006E000000080000000800000008000000080000A
:1006F00000008000000080000000800000008000FA
:100700000000800000E0FFFF030004FF01000EFF77
:1007100001000EFE00001FFE00001F7C00803F7CD9
:1007200000803F3800C07F3800C07F1000E0FFFF2E
:10073000030084000000820000008100008080002F
:10074000007F80000000800000008000000080002A
:100750000000800000008000000000000000000099
:100760000000800000008000000080000000800089
:1007700000FF81000000820000008400000088006B
:10078000000090000000A0000000C00000C0FFFFBB
:100790000180FFFF0000FF7F0000FE3F0000FC1F04
:1007A0000000F80F0000F0070000E0030000C001A7
:1007B0000000800000C0FFFF0100800000008000FA
:1007C0000000800000008000000080000000800029
:1007D000000080000000800000000000004E454343
:1007E0000053616D73756E6700436F6D6D616E646C
:1007F0006F0041647265730049522D6465636F64D4
:100800006572006C616E67203D206B69657A656E6C
:10081000005465727567005569747A657474656E05
:10082000004F70746F2D74657374004553522D6DB5
:100830006574696E67005A656E65727465737400DD
:100840004B616C696272617469650041436F6D70E0
:100850000056636300567265660043300052692B90
:100860000052692D003132203133203233005230B2
:10087000005A656E6572746573740070696E313DFF
:100880002B202070696E333D2D00656572737420D6
:100890006F6E746C6164656E2100636F6E64656E6B
:1008A0007361746F72005072696E74207569742080
:1008B000656E004553522D6D6574696E6700537007
:1008C000616E6E696E67210054657374656E2E2EBD
:1008D0002E003278206B6F72743D746572756700FC
:1008E0003178206B6F72743D737461727400476568
:1008F000656E00547269616300566600745F6F66CE
:100900006600745F6F6E0049660043545200424AAD
:1009100054004F70746F6B6F7070656C6161720022
:10092000646F6F72204D2E2052657363686B650093
:100930006D2D6669726D7761726520312E343200DB
:100940007631392E313500436F6D70756B697400E7
:10095000466F7574210054696D656F7574000000F1
:1009600000010203030102030102030276657262C1
:10097000696E64696E670056657277696A6465724C
:1009800020646500312C203220656E2033005665CE
:100990007262696E642070696E00000102020820B4
:1009A0000104100102048111530F940D260CF40A66
:1009B000F00911095008A6070F0789061006A305BC
:1009C0003F05E40491044304FC03B9037A033F03A5
:1009D0000703D1029E026D023E020F02E101B20145
:1009E00082014E010F01EE59CB52AD4C6047BC4223
:1009F000A43E003BBF37D0342932C02F8C2D872B2B
:100A0000AC29F5275E26E52485233D220A21EA1F2D
:100A1000DC1EDD1DED1C0A1C331B681AA719F0181B
:100A200041189B17FD166516D5154A15C6144714AF
:100A3000CD135813E7127B121312AE114E11F010A2
:100A40000000BA03870358032E030703E402C3021E
:100A5000A402880266706E056D006B4D050A0605DE
:100A6000060A050A0609060A050A0609060A050A0B
:100A70000609060A050A0609060A050A06050A06FF
:100A8000090A06000000000000000000000000004D
:100A90000000000000000000000000000000000056
:100AA00000000000000000820086008E009E00BE54
:100AB00000FF03BE009E008E008600820000000042
:100AC000000000000000008200C200E200F200FA14
:100AD00000FF03FA00F200E200C200820000000002
:100AE0000000000000000086018601860186018664
:100AF00001870386018601860186018601000000C8
:100B000000000000007800840002010201020102DE
:100B100001020184004800480048008601000000EE
:100B200000000000000000000000000000820082C1
:100B3000008200820082008200C600BA0002000229
:100B400000020000000000FE03020002000200029A
:100B50000003000200020002000200FE0300000089
:100B600000000000000000FF010001000100010082
:100B70000100030001000100010001FF010000006D
:100B80000000004400000000001000380028004869
:100B90000044008400FE0002010201010200000086
:100BA0000000004400000000007800840002010200
:100BB000010201020102010201840078000000002C
:100BC00000000044000000000082008200820082D9
:100BD00000820082008200820044003C000000008D
:100BE00000000000001C002200220022001200125F
:100BF0000012002200420082008200720000000009
:100C0000000000000000002400000000003C004044
:100C10000040007800440042006200DC0000000058
:100C20000000000000000024000000000038004424
:100C30000082008200820082004400380000000030
:100C400000000000000000240000000000420042FC
:100C500000420042004200420062005C00000000CE
:100C6000000000000010002800100000000000003C
:100C70000000000000000000000000000000000074
:100C80000000000000000000000000000000000064
:100C90000000000000000000000000000000000054
:100CA00000000000001000100010001000100010E4
:100CB00000100010001000000010001000000000E4
:100CC0000000000000440044004400440000000014
:100CD0000000000000000000000000000000000014
:100CE00000000000009000900048004800FE01480D
:100CF000002400FF01240024001200120000000064
:100D00000000002000F8002C0024002400280030FF
:100D1000006000E000A000A000A4007C0020000013
:100D200000000000000E021101910051004E002051
:100D3000001000C801280224022202C101000000A4
:100D40000000000000380044004400640038000C3B
:100D5000001202310221014101C200FC0100000029
:100D60000000000000100010001000100000000043
:100D70000000000000000000000000000000000073
:100D80000000000000800160003000100008000832
:100D90000008000800080008001000300060008013
:100DA0000100000000060018003000200040004054
:100DB00000400040004000400020003000180006C5
:100DC000000000000010001000D6006C0028003861
:100DD00000280000000000000000000000000000EB
:100DE00000000000000000000000000000100010E3
:100DF0000010001000FF01100010001000000000A3
:100E000000000000000000000000000000000000E2
:100E10000000000000000000001800180010001082
:100E200000080000000000000000000000000000BA
:100E3000000000FC000000000000000000000000B6
:100E400000000000000000000000000000000000A2
:100E50000000000000000000001800180000000062
:100E600000000000000001800080004000400020E1
:100E70000020001000100008000800040004000218
:100E8000000000000038004400440082008200821C
:100E9000008200820082004400440038000000000C
:100EA000000000000010001E0010001000100010D4
:100EB0000010001000100010001000FE00000000E4
:100EC00000000000003E00420040004000400020C2
:100ED00000200010000800040002007E0000000056
:100EE00000000000003C004000400040004000388E
:100EF00000400040004000400040003C0000000076
:100F000000000000002000300028002800240022FB
:100F10000022002100FF002000200020000000002F
:100F200000000000007C000400040004001C0020FD
:100F300000400040004000400020001C0000000075
:100F4000000000000078000400040002003A00469F
:100F5000008200820082008200440038000000000D
:100F60000000000000FE0080004000200020001073
:100F70000010000800080008000400040000000041
:100F800000000000007C00820082008200640018E3
:100F900000640042008200820042003C0000000029
:100FA00000000000003800440082008200820082BD
:100FB00000C400B8008000400040003C0000000079
:100FC00000000000000000000000000000180018F1
:100FD00000000000000000000018001800000000E1
:100FE00000000000000000000000000000180018D1
:100FF00000000000000000000018001800100010A1
:10100000000800000000000000000000000001C017
:101010000030000C000C003000C000000100000097
:1010200000000000000000000000000000000000C0
:1010300000FE0100000000FE0100000000000000B2
:101040000000000000000000000000000002000C92
:10105000003000C000C00030000C000200000000A2
:1010600000000000007E00C20082008000400020DE
:101070000010000800080000000800080000000040
:10108000000000000078008400E2009300890089DD
:1010900000C900C900E900B20346007C000000005E
:1010A0000000000000000000001000380028004888
:1010B0000044008400FE0002010201010200000061
:1010C0000000000000000000007E0082008200425C
:1010D000003E0042008200820082007E000000008C
:1010E000000000000000000000F80086000200017F
:1010F0000001000100010002000600F800000000ED
:101100000000000000000000003E0042008200825B
:1011100000820082008200820042003E0000000047
:10112000000000000000000000FE000200020002BB
:101130000002007E00020002000200FE000000002B
:10114000000000000000000000FE0002000200029B
:101150000002007E00020002000200020000000007
:10116000000000000000000000F0010C010400027B
:10117000000200C201020104010C01F001000000A4
:101180000000000000000000008200820082008257
:10119000008200FE008200820082008200000000C7
:1011A000000000000000000000FE00100010001011
:1011B0000010001000100010001000FE00000000E1
:1011C00000000000000000000078004000400040E7
:1011D00000400040004000400040003C0000000093
:1011E0000000000000000000008200420022001207
:1011F000000E000A001200620082000201000000DE
:1012000000000000000000000002000200020002D6
:101210000002000200020002000200FE00000000C6
:10122000000000000000000000C300C300C700A5CC
:1012300000A500AD00990099008100810000000028
:10124000000000000000000000820086008A008A82
:101250000092009200A200A200C2008200000000E2
:10126000000000000000000000780084000201027D
:101270000102010201020102018400780000000065
:101280000000000000000000007E0082008200825A
:101290000042003E000200020002000200000000C6
:1012A000000000000000000000780084000201023D
:1012B0000102010201020102018400780040008065
:1012C0000100000000000000003E00420042004219
:1012D0000022001E001200220042008200000000D6
:1012E000000000000000000000FC00820002000678
:1012F000001800600080008000C2003E0000000076
:10130000000000000000000000FF011000100010AD
:10131000001000100010001000100010000000006D
:1013200000000000000000000082008200820082B5
:1013300000820082008200820044003C0000000025
:101340000000000000000000000102020102018410
:1013500000840044004800480030003000000000D5
:101360000000000000000000000102010212013232
:101370000132012A014A01CC00CC008400000000A7
:10138000000000000000000000010202018400488B
:10139000003000300048008400020101020000001B
:1013A000000000000000000000010202018400446F
:1013B00000280010001000100010001000000000B5
:1013C000000000000000000000FE0100018000405D
:1013D0000020001000080004000200FE01000000D0
:1013E0000000000000F800080008000800080008DD
:1013F000000800080008000800080008000800F8BD
:1014000000000000000200040004000800080010B2
:1014100000100020002000400040008000800000FC
:1014200001000000003E00200020002000200020DD
:101430000020002000200020002000200020003E8E
:10144000000000000020002000300050005800483C
:1014500000880084008400020100000000000000F9
:10146000000000000000000000000000000000007C
:1014700000000000000000000000000000FF03006A
:10148000000000100020000000000000000000002C
:10149000000000000000000000000000000000004C
:1014A000000000000000000000000000003C0040C0
:1014B0000040007800440042006200DC00000000B0
:1014C000000000000002000200020002007A004654
:1014D00000820082008200820046003A0000000084
:1014E00000000000000000000000000000F8000400
:1014F0000002000200020002000400F800000000E8
:1015000000000000008000800080008000B800C45F
:10151000008200820082008200C400BC0000000043
:1015200000000000000000000000000000780084BF
:10153000008200FE00020002000400F8000000002B
:101540000000000000E001180008000800FE01088B
:10155000000800080008000800080008000000005B
:1015600000000000000000000000000000B800C4FF
:10157000008200820082008200C400BC0080004023
:10158000003C000000020002000200020072008A1B
:10159000008600820082008200820082000000003B
:1015A000000000000018001800000000001E0010DD
:1015B00000100010001000100010001000000000CB
:1015C000000000000030003000000000003C00205F
:1015D000002000200020002000200020002000200B
:1015E000001E0000000200020002000200820062F1
:1015F0000012000E000A00320042008200000000CB
:1016000000000000003C00200020002000200020FE
:10161000002000200020002000200020000000000A
:1016200000000000000000000000000000CD0033BA
:10163000011101110111011101110111010000003D
:101640000000000000000000000000000072008E9A
:10165000008600820082008200820082000000007A
:1016600000000000000000000000000000380044FE
:1016700000820082008200820044003800000000E6
:10168000000000000000000000000000007A00469A
:1016900000820082008200820046003A00020002BE
:1016A00000020000000000000000000000B800C4BC
:1016B000008200820082008200C400BC00800080A2
:1016C00000800000000000000000000000E4009422
:1016D000008C00040004000400040004000000006A
:1016E000000000000000000000000000007C00027C
:1016F0000002000C003000400042003E00000000EC
:1017000000000000000000000008000800FE0008C3
:101710000008000800080008000800F000000000B1
:101720000000000000000000000000000042004235
:1017300000420042004200420062005C00000000E3
:101740000000000000000000000000000001018215
:10175000008200420044002400280018000000001D
:101760000000000000000000000000000001021165
:1017700002320132014A014A01CC0084000000001B
:1017800000000000000000000000000000020184D2
:1017900000480030003000480084000201000000D2
:1017A0000000000000000000000000000001020234
:1017B00001020184004C0048003000300010000895
:1017C00000070000000000000000000000FE018093
:1017D0000040002000100008000400FE010000008E
:1017E0000000000000E000100010001000100010C9
:1017F0000010000C0010001000100010001000E09D
:101800000000000000100010001000100010001078
:101810000010001000100010001000100010001048
:1018200000000000001C00200020002000200020FC
:10183000002000C000200020002000200020001C0C
:101840000000000000000000000000000000000098
:10185000000E023102C10100000000000000000083
:10186000000000FF01020304050607FFFFFFFFFF62
:10187000FFFFFFFFFFFFFFFFFFFFFFFFFFFFFFFF78
:10188000FFFFFF101112131415161718191A1B1C3D
:101890001D1E1F202122232425262728292A2B2C00
:1018A0002D2E2F303132333435363738393A3B3CF0
:1018B0003D3E3F404142434445464748494A4B4CE0
:1018C0004D4E4F505152535455565758595A5B5CD0
:1018D0005D5E5F606162636465666768696A6B6CC0
:1018E0006D6EFFFFFFFFFFFFFFFFFFFFFFFFFFFF2B
:1018F000FFFFFFFFFFFFFFFFFFFFFFFFFFFFFFFFF8
:10190000FFFFFFFFFFFFFFFFFFFFFFFFFFFFFFFFE7
:10191000FFFFFF0FFFFFFFFF05FFFFFFFFFFFFFFC1
:10192000FFFFFFFFFFFFFF08FFFFFFFFFFFFFFFFBE
:10193000FFFFFFFFFFFFFFFFFF09FFFFFFFFFF0AA2
:10194000FFFF0BFFFFFFFF0CFFFFFFFFFFFFFFFF8E
:10195000FFFFFFFFFFFFFFFFFF0DFFFFFFFFFF0E7A
:10196000FFFFFF646566656374206F6E6465726473
:1019700065656C004F6E62656B656E64206F660016
:101980000701070107020602020707010704070013
:1019900011241FBECFEFD8E0DEBFCDBF14BE0FB6FF
:1019A000F894A895809160008861809360001092FF
:1019B00060000FBE21E0A0E0B1E001C01D92A23E98
:1019C000B207E1F70E9431290C94CB3B0C94000044
:1019D0008093CE016093CF016150603190F441E07B
:1019E00050E0062E02C0440F551F0A94E2F72091E2
:1019F000CB013091CC01242B352B3093CC0120939B
:101A0000CB0181502AE0829FC0011124019690935E
:101A1000E1018093E00180E1689FB00111246E5FD5
:101A20007F4F7093DD016093DC01089598E087FF9C
:101A300007C05C9A5A9A5A98880F9150C1F7089536
:101A40005C98F8CFCF93C82F599A892FEFDF8C2F4E
:101A5000EDDFCF9108955998E9CF8AE2FCDF8091BC
:101A6000E0019091E101EEDF8091DE019091DF01D4
:101A7000E9DF8BE2F0DF8091DC019091DD01E2DFB4
:101A80008091DA019091DB01DDCFB0E0A0E0EBE4E2
:101A9000FDE00C949E3B7C01E0DF0091DE011091A3
:101AA000DF010F5F1F4F8091E0019091E101081B62
:101AB000190BC091DA01D091DB0121968091DC01F4
:101AC0009091DD01C81BD90B8CE2C5DF209779F41A
:101AD000CDB7DEB7E8E00C94BA3BC701B3DF81E0D5
:101AE000C81AD108C114D104C1F72197EFCF6801FA
:101AF000F9CFB0E0A0E0EFE7FDE00C94973B6C017C
:101B0000062FC8E0D0E0F12CE12C8FEFA62EB12CEF
:101B10009DE0792E760E872C912C2CE0622E660E9D
:101B200055245394560E96010E2C02C036952795D7
:101B30000A94E2F7122F11708F3FB9F01817A9F02D
:101B4000CE0101979093E1018093E001D093DF01F2
:101B5000C093DE01B092DD01A092DC019092DB0126
:101B60008092DA0180EE97E090DF852D202F111111
:101B700002C0872D262DD093E101C093E001AE0174
:101B8000485F5F4F5093DF014093DE0130E03093B8
:101B9000DD012093DC0190E09093DB018093DA017A
:101BA00080EE97E072DF8FEFE81AF80A2996812F0E
:101BB00090E1E916F10409F0B6CFCDB7DEB7EFE05A
:101BC0000C94B33BCF93DF93D82FC62F90E0909324
:101BD000E1018093E001862F90E09093DF018093F4
:101BE000DE018DE490E09093DD018093DC018BE5D4
:101BF00090E09093DB018093DA0180EE97E045DF7F
:101C0000DE5F8D2F90E09093E1018093E001C25060
:101C1000D0E0D093DF01C093DE018FE490E0909399
:101C2000DD018093DC0189E590E09093DB018093F6
:101C3000DA0190E080E029DFDF91CF910895B0E0F4
:101C4000A0E0E5E2FEE00C949A3BC82FD62F80E09E
:101C500098EFCC2331F080EE9FEFC13011F48FE18B
:101C600090E02D2F30E03093E1012093E00127E157
:101C70002D0F30E03093DF012093DE0128E430E0C7
:101C80003093DD012093DC012FE530E03093DB0160
:101C90002093DA01FADE99E0F92EFD0ECF5FC23013
:101CA00009F447C0C33009F047C0C0E8D9E10FE4E8
:101CB00010E0FE01A4904801FFEF8F1A9F0AEF2C5D
:101CC00082E0C82ED12CB12CC5010C2C02C09595F8
:101CD00087950A94E2F780FF18C08E2D90E09093CC
:101CE000E1018093E00181E08E0D90E09093DF01AF
:101CF0008093DE011093DD010093DC019092DB0103
:101D00008092DA0190E080E0C0DE81E0C81AD1085C
:101D1000E394E394EFEFCE16DE06B1F621960E5F64
:101D20001F4F0935110529F6CDB7DEB7ECE00C944D
:101D3000B63BCAE8D9E1BBCFC5E8D9E1B8CFCF936C
:101D4000C62F60E17CDF68E78C2F79DF88E290E0C6
:101D50009093E1018093E00184E490E09093DF01AF
:101D60008093DE0183E590E09093DD018093DC01B8
:101D700085E590E09093DB018093DA018FED94E6A6
:101D800084DE8BE590E09093E1018093E00187E7AA
:101D900090E09093DF018093DE018FED94E675DE95
:101DA000CF910895B0E0A0E0E8EDFEE00C949C3BFC
:101DB000C6E1D0E0D093E101C093E0018BE890E070
:101DC0009093DF018093DE0188E490E09093DD0141
:101DD0008093DC0186E790E09093DB018093DA0149
:101DE0008FEF97E052DE88E090E09093E1018093DE
:101DF000E0010EE010E01093DF010093DE018EE4BD
:101E000090E09093DD018093DC018CE690E090936C
:101E1000DB018093DA018FEF97E037DE1093E10169
:101E20000093E001D093DF01C093DE0182E590E0F2
:101E30009093DD018093DC0188E590E09093DB01D5
:101E40008093DA018FEF97E020DECDE1D0E08EE4E1
:101E5000A82EB12C98E5C92ED12C26E6E22EF12C25
:101E600000E710E0D093E101C093E001CE010896B5
:101E70009093DF018093DE01B092DD01A092DC013E
:101E8000D092DB01C092DA0190E080E0FEDDF092BA
:101E9000DD01E092DC011093DB010093DA0190E0B8
:101EA00080E0F3DD2F96C638D105E1F68BE190E0B6
:101EB0009093E1018093E001D093DF01C093DE01B4
:101EC0008CE590E09093DD018093DC0182E690E068
:101ED0009093DB018093DA0190E080E0D6DDCDB70E
:101EE000DEB7EAE00C94B83BA3E0B0E0EAE7FFE03D
:101EF0000C94943B462E79835A01E82FF0E0ED597B
:101F0000F74EE491EF3F09F445C030E2E39FC00192
:101F100011249B838A83C22ED12C80E1282E512C40
:101F2000460181E0881A910834016A0C7B1CE42C7C
:101F3000F980312C832D877051F4EA81FB81ED57B4
:101F4000F54F54908A819B8101969B838A8350FE32
:101F500015C0F092E101E092E001C701880D991DE2
:101F60009093DF018093DE01B092DD01A092DC014D
:101F70007092DB016092DA01C80187DD56943394D8
:101F8000EC0CFD1C9AE03912D5CF2A94AC0CBD1C88
:101F90002110CACF2396E2E10C94B03BAF92BF92DE
:101FA000CF92DF92FF920F931F93CF93DF93F62E82
:101FB0005901EC01C42ED12CFE018491219681118E
:101FC0000AC0DF91CF911F910F91FF90DF90CF90CA
:101FD000BF90AF9008956F2D70E0850121E0A601BC
:101FE00083DF8AE0F80EE8CFB0E0A0E0EAEFFFE0A0
:101FF0000C949E3B7C01C4E7D0E0C62ED12C8F2DE3
:1020000082958F708A30A8F4805D00EE1FEF21E08A
:10201000A601BE0169DF84E0EE0CFF1C8A95E1F7A2
:102020002A96CC39D10559F7CDB7DEB7E8E00C9444
:10203000BA3B895CEACFA3E0B0E0E1E2F0E10C94C6
:102040009A3B7B016901582FFC012E2F251B3491EF
:1020500031963111FACFE114F10431F02F5FF7011D
:102060003491319631111EC0222309F442C060EA36
:1020700070E0EAE02E9F6019710911247B836A8366
:1020800077FF04C06F5F7F4F7B836A832A813B8128
:10209000359527953B832A8332E03983842E912C12
:1020A0005C010EC02F5FDCCF860121E0A4016A81B4
:1020B0007B811ADF6A817B81665F7F4F7B836A83C6
:1020C000F5018491FFEFAF1ABF0A8111EDCFE11442
:1020D000F10479F02A813B81265F3F4F3B832A83BD
:1020E000C7013981313029F061E06983F12CE12C9D
:1020F000D7CF2396ECE00C94B63BCF92DF92FF92C1
:102100000F931F93CF93DF93F42E4AE0849F402DCB
:102110001124C6EFC40F2FE0260F2295207F80E008
:1021200098EFFF2029F081E0F81651F180EE9FEF43
:10213000D0E0D093E101C093E001415050E05093D2
:10214000DF014093DE01C22ED12CD092DD01C0927E
:10215000DC01215F30E03093DB012093DA0195DC74
:1021600010E000E021E0A601BE0181E38F0DBCDE9E
:10217000DF91CF911F910F91FF90DF90CF90089545
:102180008FE190E0D5CFB0E0A0E0E9ECF0E10C9475
:10219000993BE82F6091CF0110E000E0613011F42D
:1021A00000EE1FEF8091CE01813108F048C0F0E0D1
:1021B000ED59F74EC491CF3F09F441C090E2C99F59
:1021C000E0011124CD57D54F03DC8091E0019091BF
:1021D000E10109969093DF018093DE018091DC019B
:1021E0009091DD010F969093DB018093DA0135DC4D
:1021F000A090D301B090D4018CE22DDC6E01E0E21E
:10220000CE0ED11C7E01F2E0EF0EF11C8AE0882E8A
:10221000982CF8E0F81510F498E0992E8918FE0132
:102220007490911011C02196CE15DF0589F7CC1658
:10223000DD0641F78091CE018F5F8093CE01CDB74F
:10224000DEB7EDE00C94B53BC50170FEC801FADBCA
:1022500076949A94E6CF0F931F93CF93DF938A01DE
:10226000B7DBE801FE0184912196811105C0DF9161
:10227000CF911F910F91089586DFF4CF0F931F9395
:10228000CF93DF93CDECD1E00E811F818FEF9FEFD5
:102290009F838E8344E759E162E083E0DCDF43E61D
:1022A00059E163E081E0D7DF80EE97E09F838E8382
:1022B00064E088E08DDB8FE366DF74DD1F830E83CF
:1022C000DF91CF911F910F9108950F931F93CF939B
:1022D000DF93D82FA89581E0D11104C0D091CF0110
:1022E0008091CE01D131E0F49FEF9D0F21E030E0ED
:1022F00002C0220F331F9A95E2F74091CB01509113
:10230000CC01BA0162237323672B31F1813041F490
:1023100020953095242335233093CC012093CB0195
:102320006D2F56DB80EA90E09093DF018093DE0111
:102330008091DC019091DD019C01215F3F4F2238AB
:10234000310578F43093DB012093DA01C0E185DBBD
:102350008CE281DBC1110EC0DF91CF911F910F91F3
:102360000895C2E8C81B81E890E09093DB01809358
:10237000DA01EDCF0091E0011091E101013A110580
:1023800010F0C150E7CF80EE9FEFD13011F090E018
:1023900080E058DB0F5F1F4FF1CFCF93DF93C1E099
:1023A0008C2F93DFCF5FCA30D9F7C091D301D09182
:1023B000D4011092D4011092D30161E085E008DBD2
:1023C0008DE4E1DE8DE2DFDE84E5DDDE85E6DBDE69
:1023D00083E7D9DE84E7D7DE85E6D5DE82E7D3DE84
:1023E000D093D401C093D30162E081E0F1DADF91B0
:1023F000CF91089590919B01EDE2F1E0911104C01D
:10240000F0E0E0E0CF0108952081281303C021818E
:102410002617C1F391503696F1CF16BC81E085BDE9
:10242000A99BFECF15BC82E085BB089590919F01CA
:10243000E92FEE0FE90FE60FFF27FF1FE45AF54FD4
:10244000E491EE23A1F09091D80191506091D901CF
:10245000E1FF04C02091D6012F5F920FE2FF04C07C
:102460002091D701620F6150482F892F46CE0895E1
:1024700080E289CECF93DF93EC01FE01849181113C
:1024800003C0DF91CF9108957EDE2196F6CFCF93E2
:10249000DF93613009F43CC0623009F042C0E6EEDF
:1024A000F9E0CCE2D0E029E130E04CE251E08417E1
:1024B000950708F43FC0841B950BB9010E94103B9F
:1024C000422F481B6C171D0611F008F0BE0177273C
:1024D000660F771F6E0F7F1FFB0185919491FB01A3
:1024E0003296C591D4918C1B9D0B489FB001499F9A
:1024F000700D1124C90196958795860F971FB90114
:102500000E94103BCE01860F971FDF91CF91089557
:10251000E2E4FAE0C7E0D0E022E330E048EE53E046
:10252000C6CFE6EAF9E0CEE1D0E029E130E048ECC0
:1025300050E0BDCF90E080E0C0CFA9EBB1E08C933C
:1025400011966C93119712964C93129790E0FC01A0
:10255000E056F64FE4911696EC93169770E0FB0167
:10256000E056F64FE4911796EC93179750E0FA0176
:10257000E056F64FE4911896EC931897FC01E35659
:10258000F64FE4911996EC931997FB01E356F64F39
:10259000E4911A96EC931A97FA01E356F64FE491F8
:1025A0001B96EC931B97FC01ED55F64FE4911C969E
:1025B000EC931C97FB01ED55F64FE4911D96EC93BF
:1025C0001D97FA01ED55F64FE4911E96EC931E9778
:1025D0008656964FFC0184911F968C931F976656E2
:1025E000764FFB01649150966C9350974656564F28
:1025F000FA01449151964C930895E9EBF1E045813D
:10260000648183819ACFE1EAF1E080E09191890FC2
:1026100091E0EB3AF907D1F7811101C081E008950B
:10262000E1EAF1E088EC90E0918380838CED90E02A
:102630009383828384E190E0958384838BE2868315
:102640001782108611860895B0E0A0E0EAE2F3E177
:102650000C94953B4B015C01342E280139011E2D51
:10266000AC019B01D1E09AE0C92ED12CE12CF12CD8
:102670002A3031054105510510F5A3019201C1E051
:102680008AE0C82ED12CE12CF12C2A3031054105ED
:102690005105E8F481149104A104B10491F14114AD
:1026A00051046104710441F1432D4D0FE12EEC0EF4
:1026B000E416F4F1ED2F4E15D9F08FEF2AC0CA01C0
:1026C000B901A70196010E94373BDF5FD1CFCA0154
:1026D000B901A70196010E94373BCF5FD6CFAAE090
:1026E000B0E0A30192010E948A3B2B013C01CF5F25
:1026F000CD17ACF3EC1794F0481459046A047B042A
:10270000B8F081E084149504A604B70408F080E0D2
:102710008195CDB7DEB7E1E10C94B13BAAE0B0E022
:10272000A50194010E948A3B4B015C01EF5FE2CF5F
:1027300081E0EFCF9DDE8091970182FF03C08DE79E
:1027400090E098CE88E790E0FCCF92DE80919701F0
:1027500080FF05C08EE417DD84E790E08BCE80E536
:10276000FACFEF92FF920F931F93CF93DF93082F2F
:10277000F62EE42EC0E080917E01102F8C1731F0F0
:1027800080917F011E2D8C1301C01F2DD091CE0191
:102790004C2F6091CF018D2FB0DCDF5FD093CE0145
:1027A0008DE3F1DC812FEFDCC23009F061DECF5F19
:1027B000C33009F7CDB7DEB7E6E00C94BC3B019718
:1027C00008F40895EFE9FFE03197F1F700C0000049
:1027D000F6CFA895EFE9FFE03197F1F700C00000D0
:1027E0000197B9F708958F929F92AF92BF92DF92AF
:1027F000EF92FF920F931F93CF93DF93CEDD4BE8C1
:10280000E42E40E0F42EF70180E09491319691118E
:1028100029C0811129C080E197E2DBDFF8940FB66F
:10282000F894A89580916000886180936000109270
:1028300060000FBE5E9883B7817F846083BF83B7DB
:10284000816083BF889583B78E7F83BFDF91CF91EF
:102850001F910F91FF90EF90DF90BF90AF909F90EE
:102860008F9008958F5FD1CF9AE0899FF001112456
:1028700080EA90E0BF010E94243BD62E84E08617B8
:1028800098F16623A1F12D2D30E0E29FA001E39F96
:10289000500DF29F500D112480EA90E0841B950B9F
:1028A00097FD0196EC01D595C79599E0A92EB12C1D
:1028B000A21AB30A23E0AA0CBB1C2A95E1F79AE0FE
:1028C000D99E40011124F7018491FFEFEF1AFF0A0E
:1028D000882309F4A0CF0FEF1FEF2D2DA501BE0116
:1028E00003DBC80DD91DEFCF34E0D32ECCCFDD24D0
:1028F000D394C9CFB0E0A0E0E0E8F4E10C949E3BB3
:10290000EC01162F15B818B88091C501062F01707B
:1029100060FFADC09091C00194B987B987E0809302
:102920007A0080E480937B008091C901806C809361
:102930007C0084E480BF0E941B29A895109280002F
:1029400010928100109285001092840087E286BB6D
:102950009091C501612F647012FF8EC098B980E11B
:1029600000008150E9F780918100816080938100AF
:1029700090E080E021E046B345FD85C040FFFBCFFD
:1029800026BB019680349105B1F710E010928100CA
:1029900020E226BBC0908600D09087005091C001F5
:1029A0007091BF01572B54B917B8E0918400F09192
:1029B0008500CE16DF0628F440FF03C041E046BB89
:1029C000019647E940937A0040917B004F7B40930A
:1029D0007B00112309F442C0F12CE12CB0E0A0E00F
:1029E000AC0133272227C22AD32AE42AF52A84E01D
:1029F000662331F08FE3C80ED11CE11CF11C83E08B
:102A0000002309F442C08D5F90E0B0E0A0E020E038
:102A100030E0A9018C159D05AE05BF0530F4A70176
:102A20009601281B390B4A0B5B0BA1E7B2E00E9411
:102A30008A3B6B5F7F4F8F4F9F4F2AE030E040E033
:102A400050E00E94373B288339834A835B8300230D
:102A5000F1F0223E344041055105F0F080EC8093C6
:102A6000B101812FCDB7DEB7E8E00C94BA3B14B8C2
:102A70009091C601892B51CF809181008160809314
:102A8000810098B975CF13E081CF8F5FBDCF253618
:102A900031054105510510F712E0E0CFCF93DF93E8
:102AA0008F70C82FC064C0937C00DC2FD07C8091D5
:102AB000B1018D1721F00E942029D093B10180919E
:102AC0007A00806480937A0080917A0086FDFCCF42
:102AD00020E030E0A90180E0E091AF018E17E8F03E
:102AE000A091B201B091B301D03C21F0A091B4010A
:102AF000B091B5010E948A3B2CE096958795779519
:102B000067952A95D1F72E2F30E050E040E00E94E3
:102B1000373BC901DF91CF91089590917A0090647D
:102B200090937A0090917A0096FDFCCF60917800A6
:102B300070917900260F371F411D511D843061F4BB
:102B4000211590E1390740F4D03C31F09091B0016B
:102B5000913011F4C06CA7CF8F5FBECFA6E0B0E07C
:102B6000E4EBF5E10C949C3B17B818B815B88FE36B
:102B700084B980E093DF9A83898381E08FDF9C832F
:102B80008B8382E08BDF9E838D83E12C12E008E251
:102B9000FF24F394AA24A394B12C1F5F133009F4EB
:102BA00010E0C12ED12C8E2D90E0012E02C0959503
:102BB00087950A94E2F780FDF0CF812F6FDFF60151
:102BC000EE0FFF1F21E030E02C0F3D1FE20FF31F3F
:102BD000208131818217930770F491838083402F85
:102BE0004F19550B443151051CF40B3E08F40C5E93
:102BF000FF24F39407C08A30910518F4083209F4D1
:102C000000E5F39483309105E8F495010C2C01C0A4
:102C1000220F0A94EAF7E22A27E0E21669F00F157C
:102C2000E8F421E0209396012093970110939C01F2
:102C300090939E0180939D0114B817B82696EAE000
:102C40000C94B83B803253E0950730F7F601ED5510
:102C5000F64FE491C7B0EC29E7B9DECFA89582E33F
:102C600090E0B7DD9ACFCF93C82FC09595B160FFA4
:102C700011C0982B95B994B1892B84B963FF0CC00E
:102C80000E941B2984B18C2384B985B18C2385B91A
:102C9000CF9108959C23EECF0E941629F3CFB0E088
:102CA000A0E0E5E5F6E10C94973BC42FD0E02FE0DF
:102CB000429FF0011124EF5AFE4F1082118294EFCF
:102CC00092831782108611861286138214821582CF
:102CD0001682138614861586168690919601913079
:102CE00009F468C1B62EF82E9A3069F490909A01D2
:102CF00028E1C22E21E0D22EA12CA91408F447C04D
:102D000024E6A21257C16B2D8F2D74DB009739F08A
:102D1000FC01828193818C3D954008F44BC140E0D9
:102D20006B2D8F2D0ADCA2E0EA2EF12CB1E17B2E77
:102D300083E0682E13DF80919601813009F4BAC2D6
:102D400018B88091C60187B915B814B88091C80128
:102D5000A5DE6C01912C812C2FEF821A920A672D2F
:102D60008091BF0180DF8091C80198DEC816D90626
:102D700008F075C28C010C191D098EE788169104A4
:102D800009F074C20B34110540F580E02BC0F60148
:102D900080818F1114C081818B1116C0F60163816F
:102DA000748185819681E12C0AE010E020E030E01A
:102DB00042814ADC8F3F41F493E6A92E05C08B1176
:102DC00003C081818F1551F3A394F7E0CF0ED11C7E
:102DD00094CFEE24E394F12CADCF81E00C32E1E00E
:102DE0001E0798F6A8958111B7CF47C2E3E06E168B
:102DF00009F49EC022E06212C3C056C2F1E0EF1A8D
:102E0000F1084CDE9C012C193D09A8958091C80160
:102E1000E114F10499F7D12CC12C2017310740F4AB
:102E20006801C21AD30A25E6C216D10408F084C08C
:102E300035DE5C01872D8071582E09F47FC00E9419
:102E40000B298091C8012ADE8A159B0518F47501AB
:102E5000E81AF90A93E06912CDCF62E0C601800F4B
:102E6000911F15DB9C01D4010E94753B4B015C0155
:102E7000552009F42AC2AAE0B0E0AC019B010E94EF
:102E80008A3B4B015C01E8E38E16E9E89E06E1E42B
:102E9000AE06B10408F411C2C501B40128EE33E056
:102EA00040E050E00E94373B49015A01A8EEB3E0F0
:102EB0000E948A3B1AEF552009F417C222E434E03D
:102EC00040E050E00E94373B8FE08C9FF0018D9FE7
:102ED000F00D1124EF5AFE4F8091BA01808380914A
:102EE000B9018183128387829086A186B28623836B
:102EF0003483458356837AE0872E912CA12CB12C04
:102F00002130F5E33F07FCE04F075105D0F4D7012E
:102F10000E948A3B28EE33E040E050E00E94373BBD
:102F200073FC1F5F6AE0C62ED12CE12CF12C1AC075
:102F3000740130E020E06ACF612C7ACF0E94102922
:102F400080CFCA01B901A50194010E94373B1F5FE0
:102F5000D7CF183FA4F5CA01B901A70196010E9475
:102F6000373B1F5F183FA9F78FE08C9FF0018D9FC3
:102F7000F00D1124EF5AFE4F23873487458756877B
:102F800080919601843188F49FE09C9FF0019D9F81
:102F9000F00D1124EF5AFE4F92818A3009F052C190
:102FA0009A3F1CF08BE080939601D8DD17B818B8D3
:102FB00014B815B8CDB7DEB7EFE00C94B33BAAE078
:102FC000B0E00E948A3B9B01AC011150CBCF15B8F9
:102FD00097E097B918B88091C20184B980E48093D2
:102FE0007B0084E480BF8091C801806480937C0072
:102FF00090937A000E941F29109280001092810005
:10300000109285001092840087E286BB8091C201F5
:1030100085B9809196018F3109F003C18091C50176
:103020008095877091E09093810087B9F12CE12C15
:1030300086B385FD0CC080FFFBCF96BBA895EFEF54
:10304000EE1AFE0AF0E8EF16FCE0FF0689F7109290
:10305000810090E296BBC0908600D090870014B8A3
:103060002091840030918500C216D30638F480FF89
:1030700005C081E086BB2FEFE21AF20A87E9809350
:103080007A0080917B008F7B80937B008091C801C8
:1030900005DD4C0115B88091C20184B980E8E816BD
:1030A0008CE0F80608F06CCFC601B0E0A0E0670144
:1030B000F12CE12C7601DD24CC24C82AD92AEA2A75
:1030C000FB2A93E0C916D104E104F10408F4ACC072
:1030D000E2E0CE1AD108E108F108F8E3CF16F9E8EA
:1030E000DF06F1E4EF06F10408F49EC0C701B60163
:1030F00028EE33E040E050E00E94373B69017A015E
:1031000017EF2091A9018091B2019091B30161E084
:10311000820F911D27FD9A95BAD9DC01A70196016E
:103120000E948A3B20E436E040E050E00E94373BBA
:1031300069017A01143F99F48091A70190E0B0E011
:10314000A0E0C12CD12C7601281739074A075B076C
:1031500030F069017A01C81AD90AEA0AFB0A8FE03D
:103160008C9FF0018D9FF00D1124EF5AFE4F80913E
:10317000BA0180838091B9018183128327833087CC
:1031800041875287C382D482E582F682143F09F0D8
:103190004DC020EAC21626E8D20621E0E206F1047C
:1031A00008F4EECE8091C80179DC853D9340D0F7DC
:1031B00014B81092B0018091C80170DC5C0181E00C
:1031C0008093B0018091C80169DCAC018091C2019B
:1031D00084B9D501A41BB50BA090B201B090B30186
:1031E000CD010496099788F095010E94843B9A01CD
:1031F00050E040E00E94593B8091A801280F2093A5
:10320000A801AC0CB11CC7FCBA9484010A191B09B3
:10321000C801C1968336910508F0B2CE0093A9018A
:10322000AFCE8091C601FECE14EF6BCF173F09F0F1
:10323000A7CE81E2C8168EE4D806E104F10408F4B2
:10324000B1CF9ECE953F0CF0ADCE83819481A58108
:10325000B6810597A105B10508F0A4CEA6CE10E071
:1032600000E0FEE78F16910409F48FCD94EF8916E4
:1032700091E0990609F0B1CDA8950C32F1E01F0755
:1032800010F46624639421E08216910409F0AECD17
:10329000053185E0180708F4A9CDE9E07E2E91E01C
:1032A000E916F10409F095CD59DC80919601813041
:1032B00009F08DCE8091960167CEA8EEB3E0AC0107
:1032C0009B010E948A3B17EFF9CD28E3821629E87B
:1032D000920621E4A206B10408F0DECDA8EEB3E028
:1032E000A50194010E948A3B17EF20E134E040E001
:1032F00050E0E8CDA4E0B0E0E0E8F9E10C94943BC4
:10330000009751F42FEF3FEF3C832B838B819C81FF
:103310002496E2E10C94B03B9C838B83FC01638197
:10332000748185819681A7EFEA2E0AE010E020E003
:1033300030E0428189D987FDE5CF10DC809196018C
:10334000813001F3EB81FC811181008117B818B83D
:1033500014B815B840E0612F802FEFD88091C501D7
:1033600087B98091C9019ADB7C018091C60187B938
:103370008091C80193DBE816F90620F440E0602F45
:10338000812FDBD88091C50187B98091C00184B9B4
:1033900012E38091C90182DB9C018039914040F4A5
:1033A00097B18091C601982B97B92832310530F03A
:1033B000115021F084E690E00CDAEBCF17B814B886
:1033C00040E0EB81FC8161818081B7D80091C80128
:1033D0008091C901006C806C8A8315BC82E084BD39
:1033E00085E687BD18B800937C000E941629FFEF80
:1033F000F983C12CD12C7601C394412C512C32017C
:103400004394F2E3AF2EB12C90E080E017EDA89545
:10341000C29758F48091C60187B98091BF0185B9E0
:1034200084B90E94292914B815B822E3A216B10460
:1034300058F48091C50187B98091C00185B984B9DC
:103440000E94292914B815B88091C50187B98091C7
:10345000BF0185B984B900937C0010937A008091F4
:103460007A0086FDFCCF10937A0080917A0086FD69
:10347000FCCF2090780030907900369427943694D1
:1034800027943A8130937C0010937A0080917A00DF
:1034900086FDFCCF10937A000E9425290E940D1210
:1034A0008091C00185B984B90E94292914B88091FE
:1034B0007A0086FDFCCFA0907800B0907900B69499
:1034C000A794B694A7948091C60187B98091C00152
:1034D00085B984B96A8160937C0010937A008091E9
:1034E0007A0086FDFCCF10937A0080917A0086FDE9
:1034F000FCCF809078009090790096948794969471
:10350000879400937C0010937A0080917A0086FD66
:10351000FCCF10937A000E9425290E940D12809101
:10352000BF0185B984B90E94292914B880917A0015
:1035300086FDFCCF809178009091790096958795D3
:1035400096958795A40170E060E0420D531D611DC2
:10355000711D440E551E661E771EAC0170E060E0C2
:103560004A0D5B1D611D711DC40ED51EE61EF71EA2
:1035700079817150798371114ACF17B815B84C14FD
:103580005D046E047F0408F045C08091A101909114
:10359000A2012AE0289FD001299FB00D1124A70184
:1035A000960124193509460957090E948A3BA3014F
:1035B00092010E94373B8091A5019091A60182174C
:1035C000930750F4F901E81BF90BFC83EB8380ECC3
:1035D0008093B101C3DA9ACEEB81FC81638174815F
:1035E000858196812AEFE22E08EE13E020E030E09C
:1035F00042812AD821E030E03C832B83181614F452
:103600001C821B826B817C817195619571097C8321
:103610006B83DDCF8FEF9FEF9C838B83D8CFB0E0A0
:10362000A0E0E5E1FBE10C94963B182F97DA80913E
:103630009601813009F4A5C018B88091C60187B9F8
:103640008091BF0185B984B90E941629C2E0D0E0FB
:10365000C12CD12C76018091C801A895806C8093F3
:103660007C000E94202980917A00806480937A00F7
:1036700080917A0086FDFCCF04E6812C912C5401C8
:1036800080917A00806480937A0080917A0086FD30
:10369000FCCF8091780090917900880E991EA11C32
:1036A000B11C0E941D29015059F7A091B201B0919F
:1036B000B301A50194010E948A3B4B015C018CE09F
:1036C000B694A794979487948A95D1F7219779F423
:1036D00015B88091C6019091C501892B87B98C14CA
:1036E0009D04AE04BF0450F090E080E042C0C1E011
:1036F000D0E0750164018091C901AFCF2091B40180
:103700003091B501A4E6B0E00E94753B9B01AC018D
:103710002C193D094E095F090E948A3B2B013C018F
:10372000A7019601281939094A095B09A8EEB3E0F7
:103730000E948A3B6B017C012091A3013091A4017E
:103740002057354E50E040E0C301B2010E94373BA4
:10375000C701B6010E94373BC901113051F4609195
:10376000A5017091A6016217730708F0BDCF861BF3
:10377000970B20EC2093B101CDB7DEB7E0E10C94BC
:10378000B23B90E080E0F8CFB0E0A0E0EAECFBE1F3
:103790000C949A3B6B017C01C42F022F9AE0892E76
:1037A000912CA12CB12C80E1C81687E2D806E10447
:1037B000F10408F054C0C13F0CF45FC08FE08C0FDF
:1037C00023E0622F0E94033BD92F992319F08F5FCA
:1037D000291BD22F883008F051C0E82FF0E0EC5AB6
:1037E000F54F14914AE06CE071E0C6010E94A93ADD
:1037F0002CE031E0F90101900020E9F79F012D5004
:103800003140B22EC22FCD1B1C165CF080E30E940B
:10381000C3108EE20E94C310CC2319F080E30E94F3
:10382000C310D11101C0CFEFC1508CE0C82E81E090
:10383000D82EF12CE12C0C2E000CDD0BEB1400F13A
:10384000112319F0812F0E94C310002319F0802F3B
:103850000E94C310CDB7DEB7ECE00C94B63BC701B5
:10386000B6016B5F7F4F8F4F9F4FA50194010E9460
:10387000373B69017A01CF5F96CFD0E010E0B2CF3D
:10388000F60181916F010E94C310CE15DF0519F476
:103890008EE20E94C310FFEFEF1AFF0ACFCFCF9244
:1038A000DF92EF92FF926B017C01F7FE0BC08DE27D
:1038B0000E94C310F094E094D094C094C11CD11C19
:1038C000E11CF11C26E54DEFC701B6015DDFFF905D
:1038D000EF90DF90CF900895CF92DF92EF92FF921A
:1038E000CF936B017C01C42F88EEC81683E0D80605
:1038F000E104F104C8F0842F440F990B0F9663E0A4
:1039000070E00E94243B892B79F4C701B6016B5FFC
:103910007F4F8F4F9F4F2AE030E040E050E00E9401
:10392000373B69017A01CF5F24E04C2FC701B60114
:103930002BDFCF91FF90EF90DF90CF900895CF9342
:10394000DF9385E0ABD8EC019093B7018093B6018B
:1039500084E68093B801CE01845893408C3F984010
:1039600090F50E94CD1183EA90E00E943A120E94E5
:103970003812CE016AE070E00E94103B90E080E0D7
:1039800026E54EEF01DF0E9438128091B60190913A
:10399000B70180382CE09207C8F480E098EF90934C
:1039A000D4018093D3018EE990E00E943A128FEF08
:1039B0009FEF9093D4018093D30188EB9BE00E940A
:1039C000E9130E94F313DF91CF9108958C3A9D4043
:1039D00048F480EE9FEF9093D4018093D30189E95E
:1039E00090E0E3CF80EE97E09093D4018093D301F1
:1039F00086E990E0DACFB0E0A0E0E1E0FDE10C94F0
:103A00009A3B6C01162F8091AD0198E6E92EFF24B8
:103A1000F39485FD02C0F12CE12C12FF05C08091CA
:103A2000AC0180FD4DC01C7F812F8370B82E39F012
:103A300068E080E10E94E80C8EE30E94C310D0E0B1
:103A4000C1E000E084E1A82E812F8270982E812FA2
:103A50008071882E1870C114D10439F086E0C81620
:103A6000D10488F185E0C81AD1084F9938C08EE199
:103A700090E00E94E913D0E0C11127C0C0E001E04E
:103A8000112309F464C082E390E00E94E913C4E1C9
:103A900001E04F990CC08EE190E00E94E9134F992C
:103AA00006C088EC90E00E94E913C1E003E0C15039
:103AB0008AE090E00E94E913C111EBCFD0E047C04B
:103AC000D12CC12CB1CFC0E0D0CF4F99D7CFDF5F81
:103AD000DB31D9F18AE090E00E94E913CDCF85E097
:103AE00090E00E94E913DF5F8D2F6A2D0E94F73A64
:103AF000911107C08091B8018230E0F0815080932D
:103B0000B801D43621F5992051F068E080E1C13048
:103B1000A9F40E94E80C80E20E94C310C2E0E11404
:103B2000F10461F281E0E816F10469F181E0E81A3C
:103B3000F108C4CF882029F302DFE3CF0E94E80C0C
:103B40008EE30E94C310C1E0EACFC0E002E08091A2
:103B5000AD0180FF1CC08091AD018E7F8093AD01CF
:103B6000BB2039F068E080E10E94E80C80E20E940E
:103B7000C310073611F40E94F313802FCDB7DEB7C0
:103B8000ECE00C94B63BD0E0C0E007E6E0CFC1111A
:103B900062CFE6CFCF936091CF018091D1018613A0
:103BA0001CC0C091CD01C0FF04C065E188EB9BE063
:103BB00022DFC1FF0EC0C091D101C23028F462E003
:103BC00081E00E94E80C07C08C2F0E946511C15053
:103BD000F4CF0E94CD11CF9108956F5FF1CFCF93B5
:103BE000DF93EC01D7DFCE010E943A120E94381217
:103BF000DF91CF910895809196018232E9F487E8B0
:103C000090E00E943A12C6DF43E461E487E40E9438
:103C1000B1138091820190918301892B61F082E838
:103C200090E0DDDF609182017091830190E080E09F
:103C300026E54DEFA9CD089583EF98E00E943A1252
:103C4000A9DF41E362E3E2CFEF92FF920F931F936C
:103C5000CF93DF931091970180917F016091800154
:103C6000FF24F39410FF05C0982F862F692F32E0B0
:103C7000F32E9091960103E524E4E22E9F3119F092
:103C800005E493E4E92E0E94FA11EC01892B59F026
:103C90000E9438128E2D0E94C3108F2D0E94C310D7
:103CA000802F0E94C31013FD3FC08091840190912A
:103CB0008501892B61F080E790E091DF60918401BC
:103CC00070918501072E000C880B990BE8DD8CE6BE
:103CD00090E085DF60919101709192018091930154
:103CE0009091940126E4409195014EDD80918201EE
:103CF00090918301892B61F088E690E070DF6091FC
:103D000082017091830190E080E024E04EEF3CDD81
:103D1000209751F089EF98E062DF6A817B8190E023
:103D200080E026E54DEF30DDCDB7DEB7E6E00C9460
:103D3000BC3BEF920F931F93CF93DF93EC01609105
:103D40008C0170918D0180918E0190918F0127EFF0
:103D5000E22E02E310E020E030E0409190010E946A
:103D6000241387FD0EC0CE013ADF60918C01709163
:103D70008D0180918E0190918F0121E440919001FD
:103D800003DDDF91CF911F910F91EF900895CF93B5
:103D9000C82F0E9417298C2F0E944E15CF9108958D
:103DA000B0E0A0E0E6EDFEE10C94983BC82F7B016B
:103DB0008091B9018093BC018091BA018093BD01CB
:103DC0008091BB018093BE018091C401C13009F094
:103DD0007AC19091BF01892B84B985B90E941229BB
:103DE0000091B4011091B5018091C8010E944E1557
:103DF000081B190BC090B401D090B5018091CA0185
:103E00000E944E15F601E81BF90BC090A301D0905B
:103E1000A401D1E088E49DE02DEF39E02E173F07A3
:103E200008F0BFC1809196018E3109F063C1809185
:103E30009701982F9C238460992359F0C13059F43D
:103E400090917F018091B901981305C0C0939601AC
:103E500082E080939701809198018160809398011E
:103E6000E016F10610F40E191F09D80120EF3BE20D
:103E700047E050E00E948A3B9F0150E040E00E94F2
:103E8000373BAAE0B0E00E948A3B20E7C21A25EE49
:103E9000D20A960150E040E00E94373B69017A0166
:103EA0009091C101C13009F02BC18091C50187B942
:103EB00088B98091C001892B84B995B98091C901D5
:103EC00066DF8C01A090B401B090B5018091CA0169
:103ED0000E944E159501281B390B2115310511F44F
:103EE00021E030E0C801821B930BB9010E94103B16
:103EF0004B01B12CA12C2031310508F03FC080913D
:103F0000C401C13009F014C19091C001982B94B93B
:103F100085B98091C9013BDF3C010091B40110914A
:103F2000B5018091CA010E944E15F801E81BF90BFA
:103F30000091A1011091A201309711F4E1E0F0E0AD
:103F4000D30120EF3BE247E050E00E948A3B9F0113
:103F500050E040E00E94373BAAE0B0E00E948A3B7C
:103F60000057154E980150E040E00E94373B821602
:103F70009306A406B50610F449015A01D2E0C8140C
:103F8000D904EA04FB0418F046015701D1E0C090BF
:103F90008801D0908901E0908A01F0908B01809196
:103FA000BB0140E06091B901C13019F4682F8091E4
:103FB000BA010E944F160E94FD128091970182FF64
:103FC000CEC00091540110915501209156013091BD
:103FD00057016091910170919201809193019091AC
:103FE0009401E0905301409195010E942413813087
:103FF00009F4BBC08C2F84608093970115B8809121
:10400000C00184B98091C50187B988B98091C9017F
:10401000BEDE8430910508F4ADC0C090A101D090FF
:10402000A201F12CE12C30E9C30E3AE1D31EE11CD0
:10403000F11C19EF17B818B814B815B8DC0120EA4C
:1040400036E841E050E00E948A3BA70196010E94B9
:10405000373B20938C0130938D0140938E01509318
:104060008F01109390018092880190928901A09213
:104070008A01B0928B01D09381018091540190917B
:104080005501A0915601B0915701809391019093F1
:104090009201A0939301B093940180915301809376
:1040A00095018091BB0180937E018091B90190912F
:1040B000BA01C13009F06DC080937F0190938001F7
:1040C00010929F0152C09091C001892B84B98091B8
:1040D000C9015DDE8C018091CA010E944E15FC0170
:1040E000C090A101D090A20180ED97E021ED33E0D6
:1040F000D2E094CE8EE180939601C0939701B0CE2A
:1041000018B88091C60187B98091BF0185B9892B04
:1041100084B90091B4011091B5018091C80137DED6
:10412000081B190B8091CA010E944E159C01D5CE27
:104130009091BF01892B84B96090B4017090B50152
:104140008091C80124DE681A790A8091CA010E9410
:104150004E15FC010091A3011091A401EDCEC814ED
:10416000D904EA04FB0408F449CFCDB7DEB7EEE08A
:104170000C94B43B8091C30184B98091C90107DEDE
:1041800060EFC62E6BE2D62E67E0E62EF12C18EF1C
:1041900051CF90937F018093800181E080939F01B4
:1041A000E4CF21E6E216F10400F780179107E8F664
:1041B0008091C8010E944E157C018091C9010E9426
:1041C0004E15E81AF90A3AEFE316F10408F0CFC0E9
:1041D0002FE1209396012D2F246120939701D13058
:1041E00009F0BAC0A091A301B091A401A057B54EA7
:1041F00022E020939F014AE04E9D90014F9D300D9B
:1042000011240E94753B980150E040E00E94373B2A
:104210008091A5019091A6018217930708F0A4C090
:10422000281B390B30938301209382018D2F8170DD
:10423000982E0091BF01C091C50150E1852ED0FD9F
:1042400006C00091C001C091C60141E1842EC77033
:104250008091CA01806480937C00F2D71AE0C12C5F
:10426000D12C7601AA24AA9433E0B32EA895682D08
:104270008091C1010E9433168091C401802B84B9C2
:10428000992009F482C086B18C23E9F704B98091A2
:104290007A00806480937A0080917A0086FDFCCF5A
:1042A000809178009091790096958795969587955D
:1042B000992009F46EC0C80ED91EE11CF11C1150E2
:1042C000A9F6C701B6012AE030E040E050E00E94C4
:1042D000593BA091B401B091B5010E948A3B20E006
:1042E00034E040E050E00E94593B30938501209338
:1042F000840180E48093B101809198018160809372
:1043000098018091BB0180937E012091BA01909128
:10431000B901D13009F045C090937F01209380010D
:1043200040E0609180010E944F168091540190916D
:104330005501A0915601B09157018093910190933E
:104340009201A0939301B0939401809153018093C3
:1043500095010E94FD1209CFA091A101B091A20187
:10436000A057B54E23E045CF30E020E05BCF80E2A0
:10437000809396018D2F84608093970188E0D130DF
:1043800009F089E080939F0151CF86B18C23E9F336
:104390007DCF9501281B390BC21AD30AE108F10819
:1043A0008ECF20937F0190938001BACFB0E0A0E040
:1043B000ECEDF1E20C949A3BA8950E94AE15809129
:1043C0009601813009F490C018B88091C60187B970
:1043D0008091C8010E944E154C018091C20184B9A0
:1043E00085B961E18091C1010E9433168091C801B5
:1043F000CEDC5C018091BF0184B985B961E1809117
:10440000C1010E9433168091C801C1DC8C018091EA
:10441000C9010E944E156C010E94AE158091960153
:10442000813009F461C018B88091C60187B98091C4
:10443000C8010E944E157C0117B88091C50188B94A
:1044400087B915B88091C30184B960E18091C10139
:104450000E9433168091C8019ADCEC018091C90159
:104460000E944E15C817D90708F443C0C81BD90BC2
:104470000C191D098091C00184B960E18091C101CE
:104480000E9433168091C80182DC6C018091C901C1
:104490000E944E15C81AD90A17B8C016D10660F581
:1044A000C8018C199D097401E501893E9340E0F42F
:1044B000C630D105C8F0CE018E199F09EC16FD0655
:1044C00018F0C7018C1B9D0B23E0E216F10418F0D5
:1044D0008436910548F0C832D10598F0C801875953
:1044E000910989389141A8F1CDB7DEB7ECE00C9481
:1044F000B63BD0E0C0E0BCCFC601801B910B86016B
:10450000D4CF15B88091C00184B98091C50188B914
:1045100087B98091C9013BDC7C018091BF0184B9DE
:104520008091C60188B987B98091C80130DC9C01AF
:10453000C70164E170E00E94103BC701861B970B26
:104540008217930758F6E60EF71E2E153F0530F634
:10455000CBCF80919601882311F08A3019F484E141
:104560008093960180919B0196E0899FF001112430
:10457000E35DFE4F9091B90190839091BA019183D0
:1045800013830283D583C4838F5F80939B01ACCF59
:1045900043E0481B461B0E949D1215B88091C00144
:1045A00084B98091C50187B988B98091C901EFDBD1
:1045B000813D934008F0FACE0895A8E0B0E0E3EE24
:1045C000F2E20C94943BA89518B88091C60187B983
:1045D0008091BF0184B985B98091C901D8DB4C01B4
:1045E0008091C8010E944E159B838A8315B88091E3
:1045F000C20184B98091C801CADB459740F580911A
:10460000C20185B98091C801C2DB6C018091C501EE
:1046100087B988B915B88091C00184B98091C80163
:10462000B6DB2C018091C9010E944E155C0180917E
:10463000C30184B98091C901AADB3C012A813B8175
:104640002033314140F452E6C516D10448F0289693
:10465000E2E10C94B03B6CE6C61663E1D606B8F70F
:1046600089EAA816B10408F071C096E269167104CF
:1046700070F3D60120EF3BE247E050E00E948A3B16
:10468000A091B401B091B501BB83AA839D012C19FF
:104690003D0950E040E00E94373B49015A01AA81A0
:1046A000BB81A619B70920EF3BE247E050E00E942A
:1046B0008A3B930150E040E00E94373BBEEDCB16B1
:1046C000B3E0DB0638F5F2E0880C991CAA1CBB1C91
:1046D000FA95D1F7CA01B901680D791D8A1D9B1D94
:1046E00025E030E040E050E00E94373B225A3E4F48
:1046F0004F4F5F4FAAE0B0E00E948A3B4B015C0144
:10470000B4E68B169104A104B10408F4ADC02FEFF8
:104710002F83D4C0EEED6E16E3E07E0670F4E2E087
:10472000220F331F441F551FEA95D1F7C501B4016D
:10473000620F731F841F951FD3CF280D391D4A1D8B
:104740005B1D5695479537952795D0CF2A813B819C
:104750002815390508F47FC04A145B0408F47BC0AF
:104760004091B4015091B5014217530721F42150F3
:1047700031093B832A832091A3013091A401205762
:10478000354EAA81BB81A819B9090E94753BAA813F
:10479000BB814A1B5B0B9A0150E040E00E94373B13
:1047A00069017A012091A1013091A2012057354E73
:1047B000D201AA19BB090E94753B950150E040E067
:1047C0000E94373BEA81FB81EE3DF340B0F462E0AA
:1047D000CC0CDD1CEE1CFF1C6A95D1F7CA01B90197
:1047E0006C0D7D1D8E1D9F1D25E030E040E050E0EA
:1047F0000E94373B49015A0183CF8EEDA81683E012
:10480000B806F0F4283F94E2390791E049075105D2
:1048100050F4CA01B90142E0660F771F881F991F43
:104820004A95D1F7DDCFA9E0B0E00E948A3B6C0D3C
:104830007D1D8E1D9F1D2AE030E040E050E0D8CF66
:10484000C20ED31EE41EF51E46015701B694A7946E
:104850009794879455CFAFE8AA16A2E1BA0608F05C
:1048600058C0812C912C540181E00E940F1B6C01D7
:10487000F12CE12CA5019401220F331F441F551F79
:10488000E5E08E169104A104B10420F4280D391D31
:104890004A1D5B1DAAE0B0E00E948A3B61157105CC
:1048A0008105910521F464E670E080E090E0C61691
:1048B000D706E806F90698F1FFEFFF8340919A01C9
:1048C00048875091B90159833090BA01609196019F
:1048D0006E8320E0A8852A1738F1BE81B093960137
:1048E000243609F4B4CEA33008F0B1CE27E0A29F5D
:1048F000F0011124E85EFE4F3082398131838382DA
:104900009482A582B6824F814283AF5FA0939A01C1
:104910009ECE2AE0822E912CA12CB12CA5CF46014F
:1049200057013EEF3F83CACFC22ED12CA7E0AC9DEA
:10493000C001AD9D900D1124FC01E85EFE4F3F01CA
:104940008081F9818F138FC0D30111968C918311CF
:104950008AC0E12C02E010E020E030E04F81C50188
:10496000B4010E9424138F3F09F072C0F301F2805A
:10497000238044805580768002E010E020E030E023
:104980004F2D622D742D852D972D0E942413682E96
:10499000FFEF8F1320C02F812F1102C06624639474
:1049A000EF80950184014F2D622D742D852D972D5B
:1049B0000E942413861509F445C037E03C9DF001A0
:1049C0003D9DF00D1124E85EFE4F83829482A58206
:1049D000B6824F81428324013501769467945794BF
:1049E000479457E05C9DF0015D9DF00D1124E85E59
:1049F000FE4FF28083819481A581B6818A839B8357
:104A0000AC83BD83EF809501840104191509260943
:104A100037094F2DBC01CD010E94241387FD10C022
:104A200095018401040D151D261D371DEF804F2DA6
:104A30006A817B818C819D810E9424131816ACF4BD
:104A400028EC48CFFF82822C942CA52CB72CC3CF06
:104A5000C501B40124E130E040E050E00E94373B62
:104A600029013A01BECF2F5F35CF9AE09E8324E61D
:104A700031CFCF93DF9340E00E949D1217B8809111
:104A8000BF0185B99091C001892B84B98091C8017B
:104A90007ED9EC018091C9010E944E15AC01209194
:104AA000B4013091B50136952795C9014E978C1701
:104AB0009D0760F4225E3F4FC217D30738F4841776
:104AC000950720F481E04217530708F080E014B8FE
:104AD000DF91CF910895CF9361E080E0CADFC82FC6
:104AE00062E080E0C6DFC80F62E081E0C2DF8C0FC9
:104AF000CF910895B0E0A0E0E0E8F5E20C94943B9B
:104B0000382E212C882311F053E0252EE4DF2816BF
:104B100009F482C04090D3015090D4010E94CD117D
:104B20008FEF9FEF9093D4018093D301332009F44A
:104B300079C04EE859E062E083E00E942B1180EEDC
:104B40009FEF9093D4018093D30144E859E063E050
:104B500084E00E942B110E94D20E332009F451C030
:104B600085E6E82E89E0F82E0EE519E0CDE1D0E0EB
:104B70009EE4692E712C28E5C22ED12C36E6A32E98
:104B8000B12C40E7842E912CF7018491813009F4F7
:104B900052C0823009F052C08FE190E0D093E10121
:104BA000C093E0019E01285F3F4F3093DF012093C7
:104BB000DE017092DD016092DC01D092DB01C092D7
:104BC000DA010E94450DF8018491882381F081303B
:104BD000C1F18230C9F58FE190E0B092DD01A09281
:104BE000DC019092DB018092DA010E94450DFFEF1B
:104BF000EF1AFF0A2F960F5F1F4FC638D10509F035
:104C0000C3CF5092D4014092D30165DF28121FC058
:104C100088EC90E00E94E91381E0CDB7DEB7E2E1D5
:104C20000C94B03B47E759E062E083E00E942B110F
:104C30004CE659E08CCF80E098EFB0CF80EE9FEF4C
:104C4000ADCF80E098EFC9CF80EE9FEFC6CF60E197
:104C500084E690E00E94FB1C91E03912D6CF8823B5
:104C6000A1F280E0DACFCF93C82FDFD28C2F0E9441
:104C70004E15CF910895B0E0A0E0E1E4F6E20C9487
:104C80009B3B90919601913009F4C5C0C62ED82E59
:104C9000A8950E949D1215B88091C00184B9809199
:104CA000C50187B988B960E18091C1010E943316BE
:104CB0008091C9016CD8EC01813D934048F061E1DD
:104CC0008091C1010E9433168091C90160D8EC0126
:104CD000C031D10508F0A4C08091980181118FC026
:104CE0008091C00184B915B88091C50187B988B990
:104CF0009ED28091C0019091C101892B84B98C2DE5
:104D000046D88F359D4018F0BE0182E049D8809189
:104D10009801811174C08091C60187B918B880913B
:104D2000BF019091C101892B84B985B98D2D2FD8F0
:104D30008034964008F063C08091CA010E944E15ED
:104D40008C018091C9010E944E157C0160E1809127
:104D5000C1010E9433168091C80119D86C0115B8A1
:104D600066D28091BF0185B98091C80110D820E436
:104D7000C21626E0D20608F015C28133914108F42C
:104D800011C214B815B88091C60188B950D280916B
:104D9000BF0184B98091C8010E94C71E853F91055B
:104DA00008F000C260E18091C1010E943316809139
:104DB000C8010E94C71E6C018DEDC81682E0D8069E
:104DC00008F0C1C182E280939601809198018160D0
:104DD000809398018AE080939F018091BB0180932A
:104DE0007E018091B90180937F018091BA01809307
:104DF00080010E191F091093830100938201809195
:104E00009601882319F08A3009F0D6C1D6DB17B88D
:104E100018B814B815B8CDB7DEB7EBE00C94B73BB3
:104E200080919801811177C198EEA92EBB24B3948B
:104E3000CB3E31E0D30718F488E2A82EB12C809144
:104E4000C0019091C401892B84B98091C9010BDF05
:104E50008C018091C40185B98091C90104DF7C0176
:104E6000E01AF10A0A0D1B1D0817190708F077C090
:104E70008091C10184B985B918B88091C60187B9FC
:104E80008091CA01F0DE17B8992493948C3B92402C
:104E900008F0912C8091C50187B98091CA01E3DEA9
:104EA0008C018091C8010E944E1517B88017910798
:104EB00038F4081B190B023C114010F49924939408
:104EC0008091C60188B987B98091BF019091C401D2
:104ED000892B84B915B88091C801C5DE8C018091F9
:104EE000C40185B98091C801BEDE801B910B8C0185
:104EF00018B88091C60187B98091BF019091C40113
:104F0000892B84B985B98091CA01ADDE88349F4070
:104F1000F8F089E18093970184E080939F018FE10D
:104F200080939601809198018160809398014091CF
:104F3000BB0140937E019091BA018091B9010E1599
:104F40001F0508F468C090937F018093800167C0BB
:104F5000911005C089E28093970186E0DECF18B8F2
:104F60008091C60187B98091BF019091C401892BBE
:104F700084B985B98091C80176DE8C018091BF012A
:104F800085B98091C8016FDE7801E81AF90AA80E88
:104F9000B91EA016B10608F0BEC08091C10184B947
:104FA00015B88091C60187B988B98091CA015BDEC6
:104FB0005C0118B88091C50187B98091C0019091BA
:104FC000C401892B84B985B98091C9014CDE8C015B
:104FD0008091C00185B98091C90145DE081B190B7C
:104FE00015B88091C50188B987B98091CA013BDEA7
:104FF000813D934028F48AE18093970185E08DCF2D
:105000008DECA81680E1B80608F085C08AE280938E
:10501000970187E082CF80937F0190938001C70141
:1050200062E370E00E94103BC701861B970B0817D4
:10503000190750F06E0D7F1D6017710728F08091E1
:1050400097018064809397016091800180917F0136
:105050000E949D128091C6019091C701892B87B94A
:105060009091BF0194B92091970120FF5BC018B8BF
:1050700095B90091B4011091B5018091C801F3DD9B
:105080009801281B390BC9014091A3015091A4013B
:105090004057554E9C01A0E1B7E20E94753B9A0132
:1050A00050E040E00E94373B20938C0130938D010B
:1050B00040938E0150938F018AEF809390018091ED
:1050C000C3019091C401892B84B99091C50197B90E
:1050D0002091970120FF30C015B898B9A7D08091D2
:1050E000C9010E944E158C018091CA010E944E1583
:1050F000801B910B909387018093860120919701EB
:1051000020FF1DC080549D4E813C924120F01092A2
:10511000870110928601C13D33E0D30708F4DCCD4E
:1051200045D96DCE88B915B88091C8019CDD4091F4
:10513000A1015091A201ACCF85B918B8CFCF813C65
:10514000924128F7E8CF8091BF0185B970D015B89A
:105150008091C8010E94C71E853F910518F5809176
:105160009601813229F480919801816080939801A1
:1051700081E2809396018BE080939F01809188016A
:10518000909189018C159D0508F041CEC601B0E0D3
:10519000A0E08093880190938901A0938A01B09345
:1051A0008B011BCE80919601813209F430CEBE0175
:1051B00081E00E94D01E23CE8F3109F028CE90913D
:1051C000970194FF24CE80917F016091800190FD32
:1051D00003C0962F682F892F0E94FA11892B09F49A
:1051E00016CE1092960110929701809198018E7FB1
:1051F000809398010CCE1F920F920FB60F9211243C
:105200001092B1000F900FBE0F901F90189503D011
:1052100002D001D000D000D003D002D001D000D005
:10522000A89500D003D002D001D000D000D003D088
:1052300002D001D000D000D003D002D001D000D0E5
:1052400000D003D002D001D000D000D003D002D0D3
:1052500001D000D000D000000000000000000000DD
:105260000895A0E5B0E0E7E3F9E20C94943B80E414
:105270008AB98BB980E886BF9CE496BF80936100B1
:1052800091E090936100000000008093F20087E9B4
:105290008093F2008FEF8EBB8EB3811170C08FEFC1
:1052A0008EBB8EB381116EC080E88093F20087EBD5
:1052B0008093F2008FEF8EBB8EB3811166C08FEFAB
:1052C0008EBB8EB3811164C080E880936100109220
:1052D000610084EF91E00E94DF1380E185BF87E8E1
:1052E00080937A0084B7887094B7977F94BF0FB685
:1052F000F894A89590916000986190936000109246
:1053000060000FBE1092AC0192E09093AD0196E068
:105310009093AE019AB194619AB99BB19B7E9BB96F
:105320009091AC0198609093AC019AB193609AB956
:105330009AB197619AB99BB1987E9BB95898882386
:1053400051F10E94CD118FEF9FEF9093D401809384
:10535000D30186E599E00E943A120E94CA1D80E5B9
:1053600099E00E943A1280ED97E00E94E9135E985E
:1053700090E080E0C05BDF4FE2E10C94B03B8EB385
:10538000815089CF8EB381508BCF8EB3815093CF14
:105390008EB3815095CF10E04F9BADC18091AC0191
:1053A00080FF05C08091AD0180628093AD0180E5F2
:1053B00090E00E94DF13589A86E990E00E94DF1384
:1053C00081E00E942B0D86E990E00E94DF1386E3C6
:1053D0000E942B0D599A80E60E94160D8AE30E94C6
:1053E0002B0D599A85E00E94160D1092E101109242
:1053F000E0018FE990E09093DF018093DE0110924D
:10540000DD011092DC018FE790E09093DB01809347
:10541000DA010E942D0D83E790E00E94DF1381E105
:105420000E942B0D88E790E00E94DF1380E18093BB
:10543000D00188E08093D10183E08093D60182E09F
:105440008093D701EE24EA94FE2CF092CC01E092F6
:10545000CB010E94CD1189E20E942B0D1092CD014B
:10546000F092D401E092D301133009F050C10E94B0
:1054700010130E94CD112FEF3FEF48E260E479E076
:1054800087E499E00E941B102FEF37E04CE470E0B6
:1054900060E080E399E00E941B102FEF37E04EE5BB
:1054A00070E060E080E299E00E941B108FEF9FEFB8
:1054B0009093D4018093D30160E080E197E20E9451
:1054C000FB1C89E18093AF0181E08093B001809360
:1054D000B10189E893E19093B5018093B40188E12B
:1054E0009FE00FB6F894A895809360000FBE90934C
:1054F0006000789410929601109297011092980192
:105500001092990110929B0110929A0110928101C0
:1055100010928301109282011092850110928401F1
:1055200010928701109286011092880110928901D1
:1055300010928A0110928B0110928C0110928D01B1
:1055400010928E0110928F011092090110920801A1
:1055500010920B0110920A01F3E0F093D50117B8F5
:1055600082E08093CD010E94CD118091CD00809387
:10557000C8008091A801082E000C990B9C5F9093A5
:10558000B3018093B20189E18093AF010E949F1C17
:105590000091B6011091B701C090D301D090D40111
:1055A0008FEF9FEF9093D4018093D30148ED50E0AB
:1055B00062E084E00E942B1142ED50E063E082E063
:1055C0000E942B1163E087E00E94E80C083E23E074
:1055D000120708F0CEC080EE9FEF9093D401809325
:1055E000D30148EC50E063E087E00E942B110E9459
:1055F000D20ED092D401C092D30184EF91E00E94E8
:10560000E9130E94AE1580919601813009F452C0D1
:1056100042E061E080E02FDB42E060E081E02BDBF4
:1056200041E062E080E027DB41E060E082E023DBF4
:1056300040E062E081E01FDB40E061E082E01BDBF4
:10564000809199018823E1F09091980190FD18C014
:1056500091FD04C0909196019E3190F48093960143
:105660008091050180937E018091060180937F01E6
:1056700080910701809380018091A00180939F0118
:1056800080919601882311F08A30A1F40E9438128B
:1056900083E40E94C31040E060E082E00E944F1665
:1056A00041E061E082E00E944F1642E060E081E06C
:1056B0000E944F160E94CD1143E04093CD0180918E
:1056C00096018E3109F4BFC308F082C18A3009F413
:1056D000ECC408F0B5C0813009F46EC20E943E11DE
:1056E0008AC21F5F153639F413E08091AC018160E6
:1056F0008093AC0153CE84E190E00E94E9134F9B6C
:10570000F0CF103110F411E049CE12E0EECF0E943C
:1057100003138093AB0120E0E22E20E0F22E01EA99
:1057200011E0C7010E94D23AD8018D938D01BFEFDD
:10573000EB1AFB0AE1E00C3A1E0799F70E940313EB
:105740009091AB01992309F494CE891709F491CE75
:105750000E94CD1187EA90E00E943A120E94CA1D71
:1057600080E599E00E943A1288E893E10E94E913EB
:105770007ECEB4E6BB2E083640E1140708F032C0F6
:10578000053E8CE0180708F459C021E030E0F9012B
:10579000EE0FFF1FE654FF4FE590F4900E151F0526
:1057A00008F446C0D9011197FD01EE0FFF1FE65422
:1057B000FF4F45915491AD54BF4FFD01A491F901A4
:1057C000ED54FF4FB49098012E193F09AB19BB0B54
:1057D0000E94843B4E195F099A0150E040E00E940C
:1057E000373BB20EC8016AE070E00E94103B90E0C7
:1057F00080E026E54EEF0E94C41B0E943812F8E2BA
:1058000080EE97E0FB1538F024E180EE9FEF2B153A
:1058100010F080E098EF9093D4018093D3016B2D2A
:1058200070E090E080E025E240E00E94C41BDFCE03
:105830002F5F3F4F2730310509F0A9CFB12CD2CFD0
:105840008B3009F4D0C0843109F048CF8090D30167
:105850009090D4018FEF9FEF9093D4018093D30168
:105860004CEE50E062E082E00E942B1110919B010F
:10587000123048F00E94381288E70E94C31080E37B
:10588000810F0E94C31063E082E00E94E80C85E56E
:105890000E94C31086E60E94C3108DE30E94C310CD
:1058A00060912F017091300190E080E026E54DEF8E
:1058B0000E94C41B60912E0180912D010E949F0EB9
:1058C00086E490E09093E1018093E00188E490E029
:1058D0009093DF018093DE010CE410E01093DD0172
:1058E0000093DC015CE5E52EF12CF092DB01E09207
:1058F000DA0180EE97E00E94450D89E490E09093F4
:10590000E1018093E0011093DF010093DE018EE45A
:1059100090E09093DD018093DC016AE5C62ED12CE6
:10592000D092DB01C092DA0180EE97E00E94450D33
:105930008DE490E09093E1018093E00180E590E0B8
:105940009093DF018093DE019093DD018093DC0171
:1059500078E5A72EB12CB092DB01A092DA0180EE9F
:1059600097E00E94450D81E590E09093E1018093DE
:10597000E00184E590E09093DF018093DE0182E511
:1059800090E09093DD018093DC0186E590E09093B8
:10599000DB018093DA0180EE97E00E94450DB09222
:1059A000E101A092E001D092DF01C092DE011093EC
:1059B000DD010093DC01F092DB01E092DA0180EE80
:1059C00097E00E94450D9092D4018092D30113C1BB
:1059D000803209F458C308F40DC3833208F07ECE38
:1059E0000E94FB1D08C100915401109155012091A6
:1059F000560130915701609163017091640180916B
:105A0000650190916601E0905301409162010E940E
:105A10002413A1E5CA2EA1E0DA2E813021F4F0E6AC
:105A2000CF2EF1E0DF2ED60113960D911D912D9111
:105A30003C9116976091720170917301809174018D
:105A4000909175011296EC90409171010E9424137F
:105A5000813021F4EFE6CE2EE1E0DE2EC6010E9479
:105A60007A198C01E090D301F090D4018FEF9FEF71
:105A70009093D4018093D30141E551E062E082E04C
:105A80000E942B1163E082E00E94E80C83E40E94F4
:105A9000C3108DE30E94C310F60163817481858178
:105AA000968126E442810E94C41B0F3F100769F0D3
:105AB0004CE451E064E082E00E942B11B80190E0D8
:105AC00080E024E04EEF0E94C41BF601838594859C
:105AD000A585B685892B8A2B8B2B89F046E451E06E
