:100000000C94E80A0C94060B0C94060B0C94060B4B
:100010000C94060B0C94060B0C94060B0C940C27FA
:100020000C94060B0C94060B0C94060B0C94060B0C
:100030000C94060B0C94060B0C94060B0C94060BFC
:100040000C94060B0C94060B0C94060B0C94060BEC
:100050000C94060B0C94060B0C94060B0C94060BDC
:100060000C94060B0C94060B5264730043677300E8
:10007000567468002D6368006465702E00656E68B4
:100080002E00565F475400D2E8F0E8F1F2EEF0009F
:10009000C4EE20F1E2E8E4E0EDE8FF21004F4B0080
:1000A000F1EBE0E1E0FF00E7E0ECE5EDE000C1E0CE
:1000B000F200CAEEEDF2F02EF1F3ECECE000645049
:1000C0003C281405006810A00F0A0FA60E420EACC3
:1000D0000DE40CEDE5F220E1E0F2E0F0E5E8005699
:1000E0006261743D00D2E5F1F22E2E2E00C1E0F2E5
:1000F000E0F0E5FF3F00C4E8EEE4002D06072D0028
:100100004963656F005662650068464500504E5071
:10011000004E504E00565F4753286F6666290049CF
:1001200064737300464554004D4F53004947425491
:10013000003220F0E5E7E8F1F2EEF0E000D0E5E78C
:10014000E8F1F2EEF000CAE0F2F3F8EAE00049F379
:10015000F23D004553523D00CAEEEDE4E5EDF1E01D
:10016000F2EEF000000010000000100000E01300AC
:10017000001C1C0000037000800090004000100173
:10018000200C0802100C0404100C0204080C0108D6
:10019000088C0008084C0008042C0010041C0010F7
:1001A000FF0F0010041C0010042C0010084C000865
:1001B000088C0408080C0708100C0704108C0704AE
:1001C000200C080240001001800090000003700025
:1001D000001C1C0000E013000000100000001000D4
:1001E00000000000000010000000100000E01300FC
:1001F000001C1C00000370008000900040001001F3
:1002000020000802108C0404108C0304088C0308DE
:10021000088C0708084C0008042C0010041C00106F
:10022000FF0F0010041C0010042C0010084C0008E4
:10023000088C0008080C0108100C0204100C0404BF
:1002400020000802400010018000900000037000B0
:10025000001C1C0000E01300000010000000100053
:1002600000000000000010000000100000E013007B
:10027000001C1C0000037000800090004010100162
:100280002010100210F41F041014000408140008B9
:1002900008040008080400080414021004140310E1
:1002A00004F41F100414131004141210080410088E
:1002B000080410080814100810141004FFF71F0495
:1002C0002010100240101001800090000003700008
:1002D000001C1C0000E013000000100000001000D3
:1002E00000000000000010000000100000E01300FB
:1002F000001C1C00000370008000900040101001E2
:1003000020101002FFF71F04101410040814100826
:100310000804100808041008041411100414131021
:1003200004F41F100414031004140110080400083E
:1003300008040008081400081014000410F41F0436
:100340002010100240101001800090000003700087
:10035000001C1C0000E01300000010000000100052
:1003600000000000000010000000100000E013007A
:10037000001C1C0000037000800090004010100161
:100380002010100210F41F041014000408140008B8
:1003900008140008081400080414021004140310C0
:1003A00004F41F100414131004141210081410087D
:1003B000081410080814100810141004FFF71F0484
:1003C0002010100240101001800090000003700007
:1003D000001C1C0000E013000000100000001000D2
:1003E00000000000000010000000100000E01300FA
:1003F000001C1C00000370008000900040101001E1
:1004000020101002FFF71F04101410040814100825
:100410000814100808141008041411100414131000
:1004200004F41F100414031004140110081400082D
:1004300008140008081400081014000410F41F0425
:100440002010100240101001800090000003700086
:10045000001C1C0000E01300000010000000100051
:1004600000000000000010000000100000E0130079
:10047000001C1C0000037000800090004000100170
:10048000201010021010100410F01F0408100008B3
:1004900008100008081000080410001004100010D4
:1004A00004100010041000100410001008100008C0
:1004B0000812000808160008FFFF1F041016100499
:1004C0002012100240001001800090000003700014
:1004D000001C1C0000E013000000100000001000D1
:1004E00000000000000010000000100000E01300F9
:1004F000001C1C00000370008000900040001001F0
:100500002012100210131004FFFF1F04081300082C
:100510000812000808100008041000100410001051
:10052000041000100410001004100010081000083F
:10053000081000080810000810F01F041010100424
:100540002010100240001001800090000003700095
:10055000001C1C0000E01300000010000000100050
:1005600000000000000010000000100000E0130078
:10057000001C1C000003700080009000400010016F
:1005800020080802100A0404100A0204080A0108DC
:10059000088A0008084A0008042A0010041A0010FB
:1005A000FF0B0010041A0010042A0010084A00086B
:1005B000088A0408080A0708100A0704108A0704B2
:1005C0002008080240001001800090000003700025
:1005D000001C1C0000E013000000100000001000D0
:1005E00000000000000010000000100000E01300F8
:1005F000001C1C00000370008000900040001001EF
:100600002000080210880404108A0304088A0308E2
:10061000088A0708084A0008042A0010041A001073
:10062000FF0B0010041A0010042A0010084A0008EA
:10063000088A0008080A0108100A020410080404C5
:1006400020000802400010018000900000037000AC
:10065000001C1C0000E0130000001000000010004F
:10066000000000000000000000800000008000008A
:10067000008000000080000000800000008000007A
:100680000080000000800000C0FFFF0180FFFF002D
:1006900000FF7F0000FE3F0000FC1F0000F80F007D
:1006A00000F0070000E0030000C00100008000002F
:1006B000C0FFFF0100C0000000A00000009000008B
:1006C000008800000084000000820000FF8100001C
:1006D000008000000080000000800000008000001A
:1006E000000000000000000000800000008000000A
:1006F00000800000008000000080000000800000FA
:10070000008000000080000000800000E0FFFF0388
:100710000004FF01000EFF01000EFE00001FFE009E
:10072000001F7C00803F7C00803F3800C07F380085
:10073000C07F1000E0FFFF03008400000082000083
:1007400000810000808000007F80000000800000A9
:100750000080000000800000008000000080000099
:100760000000000000000000008000000080000089
:100770000080000000800000FF8100000082000077
:1007800000840000008800000090000000A000002D
:1007900000C00000C0FFFF0180FFFF0000FF7F00DE
:1007A00000FE3F0000FC1F0000F80F0000F00700F3
:1007B00000E0030000C0010000800000C0FFFF0156
:1007C0000080000000800000008000000080000029
:1007D0000080000000800000008000000080000019
:1007E000000000004E45430053616D73756E670055
:1007F000CAEEECE0EDE4E000C0E4F0E5F100C8CAC8
:100800002DE4E5EAEEE4E5F000E4EEEBE3EE203D76
:1008100020E2FBE1EEF000CDE0E7E0E400C2FBEA1D
:10082000EBFEF7E8F2FC00CEEFF2EEEFE0F0E000D6
:10083000C8E7ECE5F0E5EDE8E52045535200D1F2DC
:10084000E0E1E8EBE8F2F0EEED00CAE0EBE8E1F021
:10085000EEE2EAE00041436F6D70005663630056BC
:100860007265660043300052692B0052692D0031D9
:100870003220313320323300523000D1F2E0E1E84F
:10088000EBE8F2F0EEED0070696E313D2B20207048
:10089000696E333D2D00EAEEEDE4E5EDF1E0F2EEB8
:1008A000F02100E820F0E0E7F0FFE4E8F2E500C224
:1008B000FBEAEBFEF7E8F2E520EFEBE0F2F300C82D
:1008C000E7ECE5F0E5EDE8E52045535200CDE0EF3B
:1008D000F0FFE6E5EDE8E52100D2E5F1F2E8F0EE23
:1008E000E2E0EDE8E52E2E2E00327820EAF0E0F28C
:1008F000EAEE3DEDE0E7E0E400317820EAF0E0F2F6
:10090000EAEE3DF1F2E0F0F200EDE520EDE0E9E4A1
:10091000E5ED2100D1E8ECE8F1F2EEF000566600DA
:10092000745F6F666600745F6F6E004966004354C3
:100930005200D2F0E0EDE72E424A54004FEFF2F0C1
:10094000EEED00E0E2F2EEF0204D2E2052657363F2
:10095000686B65006D2D6669726D77617265203117
:100960002E3432007631392E313500436F6D70757B
:100970006B697400CEF8E8E1EAE02100C2F0E5EC32
:10098000FF20E8F1F2E5EAEBEE00000000010203CF
:100990000301020301020302EFE5F0E5ECFBF7EAD5
:1009A000F300D3E1E5F0E8F2E500312C203220E855
:1009B000203300D1EEE5E4E8EDE8F2E520E2FBE2E9
:1009C000EEE4FB0000010202082001041001020411
:1009D0008111530F940D260CF40AF00911095008E7
:1009E000A6070F0789061006A3053F05E404910436
:1009F0004304FC03B9037A033F030703D1029E02B9
:100A00006D023E020F02E101B20182014E010F01AF
:100A1000EE59CB52AD4C6047BC42A43E003BBF37C1
:100A2000D0342932C02F8C2D872BAC29F5275E2698
:100A3000E52485233D220A21EA1FDC1EDD1DED1C75
:100A40000A1C331B681AA719F01841189B17FD16CA
:100A50006516D5154A15C6144714CD135813E71259
:100A60007B121312AE114E11F0100000BA0387036F
:100A700058032E030703E402C302A402880266702F
:100A80006E056D006B4D050A0605060A050A060986
:100A9000060A050A0609060A050A0609060A050ADB
:100AA0000609060A050A06050A06090A06000000E4
:100AB0000000000000000000000000000000000036
:100AC00042464E5EFF5E4E464200000000000000BF
:100AD0004262727AFF7A72624200000000000000F7
:100AE00066666666E76666666600000000000000EF
:100AF0001C2241414141361455770000000000009E
:100B00000202622222222222366A02010000000032
:100B100000FE0202030202FE0000000000000000CE
:100B2000007F4040C040407F00000000000070286F
:100B30002424242424242424227F414100007722D9
:100B40002222222222222222227F402000000E0482
:100B5000344C444444444444241F000000007C229C
:100B6000212121223C2824222273000000000000C1
:100B70007028242424242424227F414100000000E2
:100B80007722222222222222227F402000000000FF
:100B90000702021A26424242221F00000000000003
:100BA0000000000000000000000000000000000045
:100BB0000000000000000000000000000000080825
:100BC0000808080808080808000808000000666609
:100BD00044220000000000000000000000000000AF
:100BE00024247E2424247E24240000000000081CE9
:100BF0002A490A0C1829492A1C080000000000068E
:100C000009492610080432494830000000001C221F
:100C100021110E046E512141823C00000000181881
:100C2000100800000000000000000000000020107C
:100C30000804040404040408102000000000040850
:100C400010202020202020100804000000000000B8
:100C500008492A1C7F1C2A490800000000000000E7
:100C6000000808087F0808080000000000000000D5
:100C7000000000000000000018181008000000002C
:100C8000000000007F0000000000000000000000E5
:100C90000000000000000000181800000000000024
:100CA00000402010080402010000000000001C2287
:100CB0004141414141414141221C00000000180CCA
:100CC0000A08080808080808083E000000001C225E
:100CD0004141402010080442417F000000007F4154
:100CE0002110081C20404141221C00000000042467
:100CF0002424242221217F202070000000007F4135
:100D0000011D234140404041221C000000001C22E4
:100D10000119254341414141221C000000007F414F
:100D2000416030180C0404040404000000001C227C
:100D30004141221C22414141221C000000001C2292
:100D40004141414161524C40221C00000000000022
:100D50000018180000000018180000000000000033
:100D600000181800000000181810080000000040CB
:100D700020100804020408102040000000000000B9
:100D80000000007E00007E00000000000000000265
:100D900004081020402010080402000000001C225B
:100DA0004141404020100808000808000000001CD5
:100DB00022414D515D552D01621C0000000070283C
:100DC0002422222222223E222277000000001F221B
:100DD0004242221E22424242221F000000005C6268
:100DE0004141010101014141221C000000001F227C
:100DF0004242424242424242221F000000007F42E1
:100E00004212121E12120242427F000000007F4274
:100E10004212121E12120202020F000000005C6257
:100E20004141010179494161524C000000007722A3
:100E30002222223E222222222277000000003E08A7
:100E40000808080808080808083E000000007C1090
:100E50001010101010101011110E00000000672269
:100E6000120A0A06060A0A12226700000000070298
:100E70000202020202024242427F00000000772288
:100E80002236362A2A2A22222277000000007722E0
:100E900026262A2A2A3232222277000000001C222B
:100EA0004141414141414141221C000000001F22BB
:100EB00042424242221E02020207000000001C229F
:100EC000414141414141512142BC000000001F22EB
:100ED000424242221E0A12222267000000005C6287
:100EE0004141021C20404141221C000000007F497A
:100EF0004908080808080808083E00000000772292
:100F00002222222222222222221C000000007722FA
:100F100022222222222236141C08000000007722FE
:100F2000222A2A2A2A2A2A3E1C140000000077229C
:100F30002236141C14362222227700000000772269
:100F400022222222361C0808081C000000007F41D3
:100F50004120100804024141417F000000003E0290
:100F6000020202020202020202023E00000000002F
:100F700001020408102040000000000000003E2094
:100F8000202020202020202020203E0000000814C7
:100F900022410000000000000000000000000000EE
:100FA000000000000000000000007F000000181892
:100FB0000810000000000000000000000000000019
:100FC0001C22405C62414161524C0000000007025B
:100FD0001A26424242424242261B00000000000004
:100FE0005C62410101014141221C000000007020AF
:100FF0002C32212121212121326C0000000000002F
:101000001C2241417F010141221C000000001824E4
:101010004202020F02020202020F00000000000062
:101020006C322121212121322C20221C00000302BC
:10103000122A26222222222222770000000C0C00F3
:101040000E08080808080808083E000000303000B4
:101050003C202020202020202022221C00000302EF
:101060006252120A06060A126247000000001C10B3
:101070001010101010101010107C00000000000064
:10108000172A2A2A2A2A2A2A2A6B0000000000008E
:101090001B262222222222222277000000000000AA
:1010A0001C22414141414141221C0000000000003E
:1010B0001B26424242424242261A0207000000001A
:1010C0006C32212121212121322C207000000000CE
:1010D000334A4642020202020207000000000000FA
:1010E0005C6241021C204141221C000000000404FB
:1010F00004041F04040404444438000000000000F9
:101100007722222222222222326C000000000000DC
:1011100077222222222236141C0800000000000040
:101120007722222A2A2A2A2A3E14000000000000E0
:10113000632236141C3622222263000000000000C5
:1011400077222222222222322C20221C00000000A0
:101150007F41211008044241417F00000000300817
:10116000040404020102040404083000000008081A
:101170000808080808080808080808000000060809
:101180001010102040201010100806000000000071
:1011900000040C1C3E1C0C040000000000000000B9
:1011A0000010181C3E1C18100000000000003F2218
:1011B0002202021E22424242221F000000007F4201
:1011C0004202020202020202020700000033330060
:1011D0003F222A0A0E0A0A42427F000000006B2AC0
:1011E0002A2A2A1C3E2A2A2A2A6B000000001D23D4
:1011F0004141201820404141221C00000000632290
:1012000032322A2A2A262622227700000014086376
:101210002232322A2A2A262622770000000070284D
:1012200024222222222222222273000000007F2276
:10123000222222222222222222770000000077226C
:101240002222222222322C20221C000000001C0814
:101250003E49494949493E08081C000000007722E0
:101260002222222222322C2020700000000077222D
:10127000222A2A2A2A2A2A2A2A7F000000000F0569
:10128000354C444444444444241F00000000474279
:101290004A56525252525252524F000000001D23E1
:1012A0004148487848484141221C00000000334A28
:1012B0004A4A4A4E4A4A4A4A4A33000000007C22BF
:1012C000212121223C282422227300000000300C1E
:1012D00002011D2341414141221C00000000000089
:1012E0001F2242221E224242221F00000000000054
:1012F0003F222202020202020207000000363600EC
:101300001C2241417F010141221C0000000000001D
:101310006B2A2A2A1C3E2A2A2A6B000000000000A1
:101320001D23412018204141221C00000000000024
:10133000772232322A2A2626227700000022140839
:10134000632232322A2A262622770000000000007B
:101350006352120A060A12222263000000000000F3
:101360007824222222222222227300000000000080
:10137000772236363E2A2A2222770000000000001B
:10138000772222223E222222227700000000000043
:101390007F22222222222222227700000000000047
:1013A0007F49490808080808081C000000000000E0
:1013B0007722222222322C20207000000000000020
:1013C0007722222A2A2A2A2A2A7F000000000000E7
:1013D0000F0505344C444444241F00000000000065
:1013E0004742424A56525252524F000000000000FB
:1013F0000702021A26424242221F0000000000009B
:101400001D23414878484141221C00000000000093
:10141000334A4A4A4E4A4A4A4A3300000000000012
:101420007C22212121223C28247200000000702807
:101430002424242424242424227F414100007722D0
:101440002222222222222222227F402000007722F2
:10145000222A2A2A2A2A2A2A2A7F4020000000003B
:101460007028242424242424227F414100000000E9
:101470001C081C2A494949492A1C081C00007722DB
:10148000222A2A2A2A2A2A2A2A7F4020000000000B
:101490007722222A2A2A2A2A2A7F402000FF0102B4
:1014A0000304050607FFFFFFFFFFFFFFFFFFFFFF2E
:1014B000FFFFFFFFFFFFFFFFFFFFFFFFFF10111206
:1014C000131415161718191A1B1C1D1E1F20212274
:1014D000232425262728292A2B2C2D2E2F30313264
:1014E000333435363738393A3B3C3D3E3F40414254
:1014F000434445464748494A4B4C4D4E4F50515244
:10150000535455565758595A5B5C5D5E5F60616233
:10151000636465666768696A6B6C6D6EFFFFFFFFE9
:10152000FFFFFFFFFFFFFFFFFFFFFFFFFFFFFFFFCB
:10153000FFFFFFFFFFFFFFFFFFFFFFFFFFFFFFFFBB
:10154000FFFFFFFFFF72FFFFFFFFFFFFFFFFFFFF38
:10155000FFFF05FFFF85FFFFFFFFFFFFFF31703239
:10156000710835737475763B773D383F7840334466
:10157000797A48097B7C9D7D7E0A7F8081518283B8
:10158000840C55868788898A8B8C8D5F8E60538FFB
:10159000699C680D90919E92930E959697EDE5E863
:1015A000F1EFF0E0E2EDE0FF20E4E5F2E0EBFC003B
:1015B000CDE5E8E7E2E5F1F2EDE0FF20E8EBE80059
:1015C00007010701070206020207070107040700D7
:1015D00011241FBECFEFD8E0DEBFCDBF14BE0FB6C3
:1015E000F894A895809160008861809360001092C3
:1015F00060000FBE21E0A0E0B1E001C01D92A23E5C
:10160000B207E1F70E9442270C94DC390C940000E9
:101610008093CE016093CF016150603190F441E03E
:1016200050E0062E02C0440F551F0A94E2F72091A5
:10163000CB013091CC01242B352B3093CC0120935E
:10164000CB01815028E0829FC00111240196909324
:10165000E1018093E00180E1689FB00111246E5F99
:101660007F4F7093DD016093DC01089598E087FF60
:1016700007C05C9A5A9A5A98880F9150C1F70895FA
:101680005C98F8CFCF93C82F599A892FEFDF8C2F12
:10169000EDDFCF9108955998E9CF8AE2FCDF809180
:1016A000E0019091E101EEDF8091DE019091DF0198
:1016B000E9DF8BE2F0DF8091DC019091DD01E2DF78
:1016C0008091DA019091DB01DDCFB0E0A0E0EBE6A4
:1016D000FBE00C94AF397C01E0DF0091DE0110915A
:1016E000DF010F5F1F4F8091E0019091E101081B26
:1016F000190BC091DA01D091DB0121968091DC01B8
:101700009091DD01C81BD90B8CE2C5DF209779F4DD
:10171000CDB7DEB7E8E00C94CB39C701B3DF81E089
:10172000C81AD108C114D104C1F72197EFCF6801BD
:10173000F9CFB0E0A0E0EFE9FBE00C94A8396C0130
:10174000062FC8E0D0E0F12CE12C8FEFA62EB12CB3
:101750009DE0792E760E872C912C2CE0622E660E61
:1017600055245394560E96010E2C02C0369527959B
:101770000A94E2F7122F11708F3FB9F01817A9F0F1
:10178000CE0101979093E1018093E001D093DF01B6
:10179000C093DE01B092DD01A092DC019092DB01EA
:1017A0008092DA0180EE97E090DF852D202F1111D5
:1017B00002C0872D262DD093E101C093E001AE0138
:1017C000485F5F4F5093DF014093DE0130E030937C
:1017D000DD012093DC0190E09093DB018093DA013E
:1017E00080EE97E072DF8FEFE81AF80A2996812FD2
:1017F00090E1E916F10409F0B6CFCDB7DEB7EFE01E
:101800000C94C439CF93DF93D82FC62F90E09093D8
:10181000E1018093E001862F90E09093DF018093B7
:10182000DE018DE490E09093DD018093DC018BE597
:1018300090E09093DB018093DA0180EE97E045DF42
:10184000DE5F8D2F90E09093E1018093E001C25024
:10185000D0E0D093DF01C093DE018FE490E090935D
:10186000DD018093DC0189E590E09093DB018093BA
:10187000DA0190E080E029DFDF91CF910895B0E0B8
:10188000A0E0E5E4FCE00C94AB39C82FD62F80E053
:1018900098EFCC2331F080EE9FEFC13011F48FE14F
:1018A00090E02D2F30E03093E1012093E00127E11B
:1018B0002D0F30E03093DF012093DE0128E430E08B
:1018C0003093DD012093DC012FE530E03093DB0124
:1018D0002093DA01FADE99E0F92EFD0ECF5FC230D7
:1018E00009F447C0C33009F047C0C0ECD5E10FE4AC
:1018F00010E0FE01A4904801FFEF8F1A9F0AEF2C21
:1019000082E0C82ED12CB12CC5010C2C02C09595BB
:1019100087950A94E2F780FF18C08E2D90E090938F
:10192000E1018093E00181E08E0D90E09093DF0172
:101930008093DE011093DD010093DC019092DB01C6
:101940008092DA0190E080E0C0DE81E0C81AD10820
:10195000E394E394EFEFCE16DE06B1F621960E5F28
:101960001F4F0935110529F6CDB7DEB7ECE00C9411
:10197000C739CAECD5E1BBCFC5ECD5E1B8CFCF9321
:10198000C62F60E17CDF68E78C2F79DF88E290E08A
:101990009093E1018093E00184E490E09093DF0173
:1019A0008093DE0183E590E09093DD018093DC017C
:1019B00085E590E09093DB018093DA018FED94E66A
:1019C00084DE8BE590E09093E1018093E00187E76E
:1019D00090E09093DF018093DE018FED94E675DE59
:1019E000CF910895B0E0A0E0E8EFFCE00C94AD39B1
:1019F000C6E1D0E0D093E101C093E0018BE890E034
:101A00009093DF018093DE0188E490E09093DD0104
:101A10008093DC0186E790E09093DB018093DA010C
:101A20008FEF97E052DE88E090E09093E1018093A1
:101A3000E0010EE010E01093DF010093DE018EE480
:101A400090E09093DD018093DC018CE690E0909330
:101A5000DB018093DA018FEF97E037DE1093E1012D
:101A60000093E001D093DF01C093DE0182E590E0B6
:101A70009093DD018093DC0188E590E09093DB0199
:101A80008093DA018FEF97E020DECDE1D0E08EE4A5
:101A9000A82EB12C98E5C92ED12C26E6E22EF12CE9
:101AA00000E710E0D093E101C093E001CE01089679
:101AB0009093DF018093DE01B092DD01A092DC0102
:101AC000D092DB01C092DA0190E080E0FEDDF0927E
:101AD000DD01E092DC011093DB010093DA0190E07C
:101AE00080E0F3DD2F96C638D105E1F68BE190E07A
:101AF0009093E1018093E001D093DF01C093DE0178
:101B00008CE590E09093DD018093DC0182E690E02B
:101B10009093DB018093DA0190E080E0D6DDCDB7D1
:101B2000DEB7EAE00C94C939A3E0B0E0EAE9FDE0F1
:101B30000C94A539462E79835A01E82FF0E0E3563C
:101B4000FB4EE491EF3F09F444C030E1E39FC00154
:101B500011249B838A83C22ED12C80E1282E512C04
:101B6000460181E0881A910834016A0C7B1CE42C40
:101B7000F980312C31100AC0EA81FB81E355F54F21
:101B800054908A819B8101969B838A8350FE15C065
:101B9000F092E101E092E001C4018E0D9F1D90934F
:101BA000DF018093DE01B092DD01A092DC01709232
:101BB000DB016092DA01C80188DD56943394EC0CA5
:101BC000FD1C98E03912D6CF2A94AC0CBD1C211014
:101BD000CBCF2396E2E10C94C139AF92BF92CF9262
:101BE000DF92FF920F931F93CF93DF93F62E59014D
:101BF000EC01C42ED12CFE018491219681110AC0E2
:101C0000DF91CF911F910F91FF90DF90CF90BF9008
:101C1000AF9008956F2D70E0850121E0A60184DF6B
:101C200088E0F80EE8CFB0E0A0E0E9E1FEE00C9437
:101C3000AF397C01C4E7D0E0C62ED12C8F2D829520
:101C40008F708A30A8F4805D00EE1FEF21E0A601BE
:101C5000BE016ADF84E0EE0CFF1C8A95E1F728964E
:101C6000C439D10559F7CDB7DEB7E8E00C94CB39CC
:101C7000895CEACFA3E0B0E0E0E4FEE00C94AB398D
:101C80007B016901582FFC012E2F251B34913196C1
:101C90003111FACFE114F10431F02F5FF7013491E3
:101CA000319631111EC0222309F442C060EA70E06F
:101CB000E8E02E9F6019710911247B836A8377FF06
:101CC00004C06F5F7F4F7B836A832A813B81359598
:101CD00027953B832A8332E03983842E912C5C0143
:101CE0000EC02F5FDCCF860121E0A4016A817B81D9
:101CF0001BDF6A817B81685F7F4F7B836A83F5018D
:101D00008491FFEFAF1ABF0A8111EDCFE114F10406
:101D100079F02A813B81285F3F4F3B832A83C701AB
:101D20003981313029F061E06983F12CE12CD7CF82
:101D30002396ECE00C94C739CF92DF92FF920F9379
:101D40001F93CF93DF93F42E4FE1480F440F440FBE
:101D5000440F2FE0260F2295207F80E098EFFF2090
:101D600029F081E0F81659F180EE9FEFC42FD0E002
:101D7000D093E101C093E001495F50E05093DF014F
:101D80004093DE01C22ED12CD092DD01C092DC0145
:101D9000215F30E03093DB012093DA0196DC10E024
:101DA00000E021E0A601BE0181E38F0DBDDEDF91E1
:101DB000CF911F910F91FF90DF90CF9008958FE109
:101DC00090E0D4CFB0E0A0E0E8EEFEE00C94AD39B6
:101DD000E82F6091CF0110E000E0613011F400EED7
:101DE0001FEF8091CE01853108F040C0F0E0E3564E
:101DF000FB4EC491CF3F09F439C090E1C99FE00187
:101E00001124C355D54F04DC8091E0019091E1018C
:101E100007969093DF018093DE018091DC01909121
:101E2000DD010F969093DB018093DA0136DCC090E0
:101E3000D301D090D4018CE22EDC5E01E0E1AE0E45
:101E4000B11CFE01E49088E0F82EC601E0FEC80156
:101E500019DCE694FA94F110F8CF2196CA15DB0547
:101E600081F78091CE018F5F8093CE01CDB7DEB731
:101E7000EAE00C94C9390F931F93CF93DF938A0143
:101E8000C7DBE801FE0184912196811105C0DF9135
:101E9000CF911F910F91089595DFF4CF0F931F936A
:101EA000CF93DF93CDECD1E00E811F818FEF9FEFB9
:101EB0009F838E8340EB55E162E083E0DCDF4DE9F8
:101EC00055E163E081E0D7DF80EE97E09F838E836A
:101ED00064E088E09DDB8FE375DF84DD1F830E8384
:101EE000DF91CF911F910F9108950F931F93CF937F
:101EF000DF93D82FA89581E0D11104C0D091CF01F4
:101F00008091CE01D131E0F49FEF9D0F21E030E0D0
:101F100002C0220F331F9A95E2F74091CB015091F6
:101F2000CC01BA0162237323672B31F1813041F474
:101F300020953095242335233093CC012093CB0179
:101F40006D2F66DB80EA90E09093DF018093DE01E5
:101F50008091DC019091DD019C01215F3F4F22388F
:101F6000310578F43093DB012093DA01C0E195DB91
:101F70008CE291DBC1110EC0DF91CF911F910F91C7
:101F80000895C2E8C81B81E890E09093DB0180933C
:101F9000DA01EDCF0091E0011091E101013A110564
:101FA00010F0C150E7CF80EE9FEFD13011F090E0FC
:101FB00080E068DB0F5F1F4FF1CFCF93DF93C1E06D
:101FC0008C2F93DFCF5FCA30D9F7C091D301D09166
:101FD000D4011092D4011092D30161E087E018DBA4
:101FE0008DE4F0DE8DE2EEDE84E5ECDE85E6EADE11
:101FF00083E7E8DE84E7E6DE85E6E4DE82E7E2DE2C
:10200000D093D401C093D30162E081E001DBDF9182
:10201000CF91089590919B01EDE2F1E0911104C000
:10202000F0E0E0E0CF0108952081281303C0218172
:102030002617C1F391503696F1CF16BC81E085BDCD
:10204000A99BFECF15BC82E085BB089590919F01AE
:10205000E92FEE0FE90FE60FFF27FF1FEA57F54FB5
:10206000E491EE23A1F09091D80191506091D901B3
:10207000E1FF04C02091D6012F5F920FE2FF04C060
:102080002091D701620F6150482F892F55CE0895B6
:1020900080E298CECF93DF93EC01FE018491811111
:1020A00003C0DF91CF9108958DDE2196F6CFCF93B7
:1020B000DF93613009F43CC0623009F042C0E0E1D6
:1020C000FAE0CCE2D0E029E130E04CE251E08417C4
:1020D000950708F43FC0841B950BB9010E94213974
:1020E000422F481B6C171D0611F008F0BE01772720
:1020F000660F771F6E0F7F1FFB0185919491FB0187
:102100003296C591D4918C1B9D0B489FB001499F7D
:10211000700D1124C90196958795860F971FB901F7
:102120000E942139CE01860F971FDF91CF9108952C
:10213000ECE6FAE0C7E0D0E022E330E048EE53E01E
:10214000C6CFE0EDF9E0CEE1D0E029E130E048ECA7
:1021500050E0BDCF90E080E0C0CFA9EBB1E08C9320
:1021600011966C93119712964C93129790E0FC0184
:10217000E653F64FE4911696EC93169770E0FB0148
:10218000E653F64FE4911796EC93179750E0FA0157
:10219000E653F64FE4911896EC931897FC01E95337
:1021A000F64FE4911996EC931997FB01E953F64F1A
:1021B000E4911A96EC931A97FA01E953F64FE491D9
:1021C0001B96EC931B97FC01E353F64FE4911C968E
:1021D000EC931C97FB01E353F64FE4911D96EC93AF
:1021E0001D97FA01E353F64FE4911E96EC931E9768
:1021F0008C53964FFC0184911F968C931F976C53C0
:10220000764FFB01649150966C9350974C53564F08
:10221000FA01449151964C930895E9EBF1E0458120
:10222000648183819ACFE1EAF1E080E09191890FA6
:1022300091E0EB3AF907D1F7811101C081E00895EF
:10224000E1EAF1E088EC90E0918380838CED90E00E
:102250009383828384E190E0958384838BE28683F9
:102260001782108611860895B0E0A0E0EAE3F1E15C
:102270000C94A6394B015C01342E280139011E2D26
:10228000AC019B01D1E09AE0C92ED12CE12CF12CBC
:102290002A3031054105510510F5A3019201C1E035
:1022A0008AE0C82ED12CE12CF12C2A3031054105D1
:1022B0005105E8F481149104A104B10491F1411491
:1022C00051046104710441F1432D4D0FE12EEC0ED8
:1022D000E416F4F1ED2F4E15D9F08FEF2AC0CA01A4
:1022E000B901A70196010E944839DF5FD1CFCA0129
:1022F000B901A70196010E944839CF5FD6CFAAE065
:10230000B0E0A30192010E949B392B013C01CF5FF9
:10231000CD17ACF3EC1794F0481459046A047B040D
:10232000B8F081E084149504A604B70408F080E0B6
:102330008195CDB7DEB7E1E10C94C239AAE0B0E0F7
:10234000A50194010E949B394B015C01EF5FE2CF34
:1023500081E0EFCF9DDE8091970182FF03C08DE782
:1023600090E098CE88E790E0FCCF92DE80919701D4
:1023700080FF05C08EE426DD84E790E08BCE80E50B
:10238000FACFEF92FF920F931F93CF93DF93082F13
:10239000F62EE42EC0E080917E01102F8C1731F0D4
:1023A00080917F011E2D8C1301C01F2DD091CE0175
:1023B0004C2F6091CF018D2FBFDCDF5FD093CE011A
:1023C0008DE300DD812FFEDCC23009F061DECF5FDE
:1023D000C33009F7CDB7DEB7E6E00C94CD390197ED
:1023E00008F40895EFE9FFE03197F1F700C000002D
:1023F000F6CFA895EFE9FFE03197F1F700C00000B4
:102400000197B9F708958F929F92AF92BF92DF9292
:10241000EF92FF920F931F93CF93DF93CEDD50E99E
:10242000E52E50E0F52EF70180E094913196911160
:1024300029C0811129C080E197E2DBDFF8940FB653
:10244000F894A89580916000886180936000109254
:1024500060000FBE5E9883B7817F846083BF83B7BF
:10246000816083BF889583B78E7F83BFDF91CF91D3
:102470001F910F91FF90EF90DF90BF90AF909F90D2
:102480008F9008958F5FD1CF98E0899FF00111243C
:1024900080EA90E0BF010E943539D62E84E086178D
:1024A000A0F16623A9F18D2C912CE89DA001E99D56
:1024B000500DF89D500D112480EA90E0841B950B7F
:1024C00097FD0196EC01D595C79599E0A92EB12C01
:1024D000A818B90823E0AA0CBB1C2A95E1F733E041
:1024E000880C991C3A95E1F7F7018491FFEFEF1AF8
:1024F000FF0A882309F49FCF0FEF1FEF2D2DA501B1
:10250000BE0112DBC80DD91DEFCF44E0D42ECBCFD6
:10251000DD24D394C8CFB0E0A0E0E1E9F2E10C946F
:10252000AF39EC01162F15B818B88091C501062FE8
:10253000017060FFADC09091C00194B987B987E088
:1025400080937A0080E480937B008091C901806C45
:1025500080937C0084E480BF0E942C27A895109271
:10256000800010928100109285001092840087E212
:1025700086BB9091C501612F647012FF8EC098B91F
:1025800080E100008150E9F78091810081608093B3
:10259000810090E080E021E046B345FD85C040FF2A
:1025A000FBCF26BB019680349105B1F710E0109265
:1025B000810020E226BBC0908600D0908700509119
:1025C000C0017091BF01572B54B917B8E091840036
:1025D000F0918500CE16DF0628F440FF03C041E0ED
:1025E00046BB019647E940937A0040917B004F7BC0
:1025F00040937B00112309F442C0F12CE12CB0E0A0
:10260000A0E0AC0133272227C22AD32AE42AF52AE4
:1026100084E0662331F08FE3C80ED11CE11CF11C6D
:1026200083E0002309F442C08D5F90E0B0E0A0E0B9
:1026300020E030E0A9018C159D05AE05BF0530F402
:10264000A7019601281B390B4A0B5B0BA1E7B2E0EF
:102650000E949B396B5F7F4F8F4F9F4F2AE030E086
:1026600040E050E00E944839288339834A835B83E5
:102670000023F1F0223E344041055105F0F080EC9A
:102680008093B101812FCDB7DEB7E8E00C94CB3950
:1026900014B89091C601892B51CF8091810081603F
:1026A0008093810098B975CF13E081CF8F5FBDCF44
:1026B000253631054105510510F712E0E0CFCF93E3
:1026C000DF938F70C82FC064C0937C00DC2FD07C58
:1026D0008091B1018D1721F00E943127D093B10173
:1026E00080917A00806480937A0080917A0086FDE0
:1026F000FCCF20E030E0A90180E0E091AF018E172F
:10270000E8F0A091B201B091B301D03C21F0A091CA
:10271000B401B091B5010E949B392CE09695879544
:10272000779567952A95D1F72E2F30E050E040E05D
:102730000E944839C901DF91CF91089590917A00A4
:10274000906490937A0090917A0096FDFCCF60910E
:10275000780070917900260F371F411D511D84307C
:1027600061F4211590E1390740F4D03C31F09091AB
:10277000B001913011F4C06CA7CF8F5FBECFA6E03F
:10278000B0E0E5ECF3E10C94AD3917B818B815B822
:102790008FE384B980E093DF9A83898381E08FDFC0
:1027A0009C838B8382E08BDF9E838D83E12C12E000
:1027B00008E2FF24F394AA24A394B12C1F5F1330E2
:1027C00009F410E0C12ED12C8E2D90E0012E02C014
:1027D000959587950A94E2F780FDF0CF812F6FDF02
:1027E000F601EE0FFF1F21E030E02C0F3D1FE20F3E
:1027F000F31F208131818217930770F491838083C6
:10280000402F4F19550B443151051CF40B3E08F471
:102810000C5EFF24F39407C08A30910518F4083247
:1028200009F400E5F39483309105E8F495010C2C4C
:1028300001C0220F0A94EAF7E22A27E0E21669F0C3
:102840000F15E8F421E0209396012093970110934F
:102850009C0190939E0180939D0114B817B8269611
:10286000EAE00C94C939803253E0950730F7F6015D
:10287000E353F64FE491C7B0EC29E7B9DECFA89552
:1028800082E390E0B6DD9ACFCF93C82FC09595B183
:1028900060FF11C0982B95B994B1892B84B963FF5F
:1028A0000CC00E942C2784B18C2384B985B18C2361
:1028B00085B9CF9108959C23EECF0E942727F3CFAF
:1028C000B0E0A0E0E6E6F4E10C94A839C42FD0E033
:1028D0002FE0429FF0011124EF5AFE4F1082118227
:1028E00094EF9283178210861186128613821482C7
:1028F0001582168213861486158616869091960187
:10290000913009F468C1B62EF82E9A3069F490908F
:102910009A0128E1C22E21E0D22EA12CA91408F49C
:1029200047C024E6A21257C16B2D8F2D73DB009791
:1029300039F0FC01828193818C3D954008F44BC1B4
:1029400040E06B2D8F2D09DCA2E0EA2EF12CB1E1E5
:102950007B2E83E0682E13DF80919601813009F48D
:10296000BAC218B88091C60187B915B814B8809159
:10297000C801A5DE6C01912C812C2FEF821A920ADE
:10298000672D8091BF0180DF8091C80198DEC81655
:10299000D90608F075C28C010C191D098EE788163E
:1029A000910409F074C20B34110540F580E02BC08E
:1029B000F60180818F1114C081818B1116C0F60140
:1029C0006381748185819681E12C0AE010E020E02A
:1029D00030E0428149DC8F3F41F493E6A92E05C0E7
:1029E0008B1103C081818F1551F3A394F7E0CF0EB3
:1029F000D11C94CFEE24E394F12CADCF81E00C32C6
:102A0000E1E01E0798F6A8958111B7CF47C2E3E031
:102A10006E1609F49EC022E06212C3C056C2F1E0F5
:102A2000EF1AF1084CDE9C012C193D09A895809104
:102A3000C801E114F10499F7D12CC12C20173107FA
:102A400040F46801C21AD30A25E6C216D10408F080
:102A500084C035DE5C01872D8071582E09F47FC05B
:102A60000E941C278091C8012ADE8A159B0518F454
:102A70007501E81AF90A93E06912CDCF62E0C60148
:102A8000800F911F14DB9C01D4010E9486394B01F9
:102A90005C01552009F42AC2AAE0B0E0AC019B0118
:102AA0000E949B394B015C01E8E38E16E9E89E0623
:102AB000E1E4AE06B10408F411C2C501B40128EE88
:102AC00033E040E050E00E94483949015A01A8EE45
:102AD000B3E00E949B391AEF552009F417C222E493
:102AE00034E040E050E00E9448398FE08C9FF001D4
:102AF0008D9FF00D1124EF5AFE4F8091BA01808313
:102B00008091B9018183128387829086A186B286E3
:102B100023833483458356837AE0872E912CA12C1E
:102B2000B12C2130F5E33F07FCE04F075105D0F40D
:102B3000D7010E949B3928EE33E040E050E00E942C
:102B4000483973FC1F5F6AE0C62ED12CE12CF12CB2
:102B50001AC0740130E020E06ACF612C7ACF0E9465
:102B6000212780CFCA01B901A50194010E944839EB
:102B70001F5FD7CF183FA4F5CA01B901A70196017D
:102B80000E9448391F5F183FA9F78FE08C9FF00122
:102B90008D9FF00D1124EF5AFE4F23873487458710
:102BA000568780919601843188F49FE09C9FF001C4
:102BB0009D9FF00D1124EF5AFE4F92818A3009F04B
:102BC00052C19A3F1CF08BE080939601D8DD17B874
:102BD00018B814B815B8CDB7DEB7EFE00C94C43907
:102BE000AAE0B0E00E949B399B01AC011150CBCF11
:102BF00015B897E097B918B88091C20184B980E4FC
:102C000080937B0084E480BF8091C80180648093BE
:102C10007C0090937A000E943027109280001092DE
:102C20008100109285001092840087E286BB80911B
:102C3000C20185B9809196018F3109F003C180915D
:102C4000C5018095877091E09093810087B9F12C40
:102C5000E12C86B385FD0CC080FFFBCF96BBA89509
:102C6000EFEFEE1AFE0AF0E8EF16FCE0FF0689F738
:102C70001092810090E296BBC0908600D0908700B1
:102C800014B82091840030918500C216D30638F420
:102C900080FF05C081E086BB2FEFE21AF20A87E9C8
:102CA00080937A0080917B008F7B80937B00809162
:102CB000C80105DD4C0115B88091C20184B980E8D6
:102CC000E8168CE0F80608F06CCFC601B0E0A0E092
:102CD0006701F12CE12C7601DD24CC24C82AD92A05
:102CE000EA2AFB2A93E0C916D104E104F10408F4AE
:102CF000ACC0E2E0CE1AD108E108F108F8E3CF1643
:102D0000F9E8DF06F1E4EF06F10408F49EC0C7011C
:102D1000B60128EE33E040E050E00E9448396901F6
:102D20007A0117EF2091A9018091B2019091B3012E
:102D300061E0820F911D27FD9A95B9D9DC01A701A9
:102D400096010E949B3920E436E040E050E00E946A
:102D5000483969017A01143F99F48091A70190E004
:102D6000B0E0A0E0C12CD12C7601281739074A0722
:102D70005B0730F069017A01C81AD90AEA0AFB0A2E
:102D80008FE08C9FF0018D9FF00D1124EF5AFE4FC4
:102D90008091BA0180838091B90181831283278356
:102DA000308741875287C382D482E582F682143FFE
:102DB00009F04DC020EAC21626E8D20621E0E2065C
:102DC000F10408F4EECE8091C80179DC853D934092
:102DD000D0F714B81092B0018091C80170DC5C018A
:102DE00081E08093B0018091C80169DCAC018091E1
:102DF000C20184B9D501A41BB50BA090B201B0905B
:102E0000B301CD010496099788F095010E94953988
:102E10009A0150E040E00E946A398091A801280F91
:102E20002093A801AC0CB11CC7FCBA9484010A1908
:102E30001B09C801C1968336910508F0B2CE0093F4
:102E4000A901AFCE8091C601FECE14EF6BCF173F24
:102E500009F0A7CE81E2C8168EE4D806E104F10499
:102E600008F4B1CF9ECE953F0CF0ADCE8381948116
:102E7000A581B6810597A105B10508F0A4CEA6CE1F
:102E800010E000E0FEE78F16910409F48FCD94EF77
:102E9000891691E0990609F0B1CDA8950C32F1E0C0
:102EA0001F0710F46624639421E08216910409F050
:102EB000AECD053185E0180708F4A9CDE9E07E2EF6
:102EC00091E0E916F10409F095CD59DC8091960165
:102ED000813009F08DCE8091960167CEA8EEB3E0E7
:102EE000AC019B010E949B3917EFF9CD28E38216B4
:102EF00029E8920621E4A206B10408F0DECDA8EE8E
:102F0000B3E0A50194010E949B3917EF20E134E062
:102F100040E050E0E8CDA4E0B0E0E1E9F7E10C9456
:102F2000A539009751F42FEF3FEF3C832B838B8122
:102F30009C812496E2E10C94C1399C838B83FC0133
:102F40006381748185819681A7EFEA2E0AE010E003
:102F500020E030E0428188D987FDE5CF10DC809108
:102F60009601813001F3EB81FC811181008117B85A
:102F700018B814B815B840E0612F802FEED88091B2
:102F8000C50187B98091C9019ADB7C018091C60196
:102F900087B98091C80193DBE816F90620F440E078
:102FA000602F812FDAD88091C50187B98091C00147
:102FB00084B912E38091C90182DB9C018039914080
:102FC00040F497B18091C601982B97B9283231050A
:102FD00030F0115021F084E690E00BDAEBCF17B817
:102FE00014B840E0EB81FC8161818081B6D800910A
:102FF000C8018091C901006C806C8A8315BC82E095
:1030000084BD85E687BD18B800937C000E94272701
:10301000FFEFF983C12CD12C7601C394412C512CA4
:1030200032014394F2E3AF2EB12C90E080E017ED33
:10303000A895C29758F48091C60187B98091BF01C5
:1030400085B984B90E943A2714B815B822E3A216AC
:10305000B10458F48091C50187B98091C00185B948
:1030600084B90E943A2714B815B88091C50187B970
:103070008091BF0185B984B900937C0010937A00D8
:1030800080917A0086FDFCCF10937A0080917A00BF
:1030900086FDFCCF209078003090790036942794FC
:1030A000369427943A8130937C0010937A00809173
:1030B0007A0086FDFCCF10937A000E9436270E948A
:1030C0001D108091C00185B984B90E943A2714B8B7
:1030D00080917A0086FDFCCFA0907800B0907900B6
:1030E000B694A794B694A7948091C60187B98091AD
:1030F000C00185B984B96A8160937C0010937A001D
:1031000080917A0086FDFCCF10937A0080917A003E
:1031100086FDFCCF809078009090790096948794FB
:103120009694879400937C0010937A0080917A00A3
:1031300086FDFCCF10937A000E9436270E941D1056
:103140008091BF0185B984B90E943A2714B8809153
:103150007A0086FDFCCF8091780090917900969559
:10316000879596958795A40170E060E0420D531D08
:10317000611D711D440E551E661E771EAC0170E068
:1031800060E04A0D5B1D611D711DC40ED51EE61E5B
:10319000F71E79817150798371114ACF17B815B82C
:1031A0004C145D046E047F0408F045C08091A101B9
:1031B0009091A2012AE0289FD001299FB00D1124EF
:1031C000A701960124193509460957090E949B3920
:1031D000A30192010E9448398091A5019091A60116
:1031E0008217930750F4F901E81BF90BFC83EB837A
:1031F00080EC8093B101C3DA9ACEEB81FC816381CC
:103200007481858196812AEFE22E08EE13E020E09A
:1032100030E0428129D821E030E03C832B8318162E
:1032200014F41C821B826B817C81719561957109FC
:103230007C836B83DDCF8FEF9FEF9C838B83D8CF15
:10324000B0E0A0E0E6E2F9E10C94A739182F97DA94
:1032500080919601813009F4A5C018B88091C6010B
:1032600087B98091BF0185B984B90E942727C2E040
:10327000D0E0C12CD12C76018091C801A895806C3A
:1032800080937C000E94312780917A008064809333
:103290007A0080917A0086FDFCCF04E6812C912C87
:1032A000540180917A00806480937A0080917A0042
:1032B00086FDFCCF8091780090917900880E991E50
:1032C000A11CB11C0E942E27015059F7A091B201F8
:1032D000B091B301A50194010E949B394B015C019F
:1032E0008CE0B694A794979487948A95D1F7219708
:1032F00079F415B88091C6019091C501892B87B9E1
:103300008C149D04AE04BF0450F090E080E042C0F5
:10331000C1E0D0E0750164018091C901AFCF209177
:10332000B4013091B501A4E6B0E00E9486399B015A
:10333000AC012C193D094E095F090E949B392B01F4
:103340003C01A7019601281939094A095B09A8EE31
:10335000B3E00E949B396B017C012091A301309165
:10336000A4012057354E50E040E0C301B2010E9455
:103370004839C701B6010E944839C901113051F4DA
:103380006091A5017091A6016217730708F0BDCF87
:10339000861B970B20EC2093B101CDB7DEB7E0E19F
:1033A0000C94C33990E080E0F8CFB0E0A0E0EBED02
:1033B000F9E10C94AB396B017C01C42F022F9AE028
:1033C000892E912CA12CB12C80E1C81687E2D80659
:1033D000E104F10408F054C0C13F0CF45FC08FE079
:1033E0008C0F23E0622F0E941439D92F992319F0F2
:1033F0008F5F291BD22F883008F051C0E82FF0E0F2
:10340000E258F54F14914AE06CE071E0C6010E9469
:10341000BA382CE031E0F90101900020E9F79F0172
:103420002D503140B22EC22FCD1B1C165CF080E314
:103430000E94E20E8EE20E94E20ECC2319F080E39D
:103440000E94E20ED11101C0CFEFC1508CE0C82E16
:1034500081E0D82EF12CE12C0C2E000CDD0BEB14AE
:1034600000F1112319F0812F0E94E20E002319F0C0
:10347000802F0E94E20ECDB7DEB7ECE00C94C73986
:10348000C701B6016B5F7F4F8F4F9F4FA50194011E
:103490000E94483969017A01CF5F96CFD0E010E0F1
:1034A000B2CFF60181916F010E94E20ECE15DF05C9
:1034B00019F48EE20E94E20EFFEFEF1AFF0ACFCF5F
:1034C000CF92DF92EF92FF926B017C01F7FE0BC06F
:1034D0008DE20E94E20EF094E094D094C094C11C5E
:1034E000D11CE11CF11C26E54DEFC701B6015DDFE3
:1034F000FF90EF90DF90CF900895CF92DF92EF9200
:10350000FF92CF936B017C01C42F88EEC81683E035
:10351000D806E104F104C8F0842F440F990B0F96EC
:1035200063E070E00E943539892B79F4C701B60158
:103530006B5F7F4F8F4F9F4F2AE030E040E050E0BD
:103540000E94483969017A01CF5F24E04C2FC701FE
:10355000B6012BDFCF91FF90EF90DF90CF900895D1
:10356000CF93DF9385E0ABD8EC019093B7018093C4
:10357000B60184E68093B801CE01845893408C3F15
:10358000984090F50E94DD0F8EEA90E00E944A106C
:103590000E944810CE016AE070E00E94213990E05C
:1035A00080E026E54EEF01DF0E9448108091B601D1
:1035B0009091B70180382CE09207C8F480E098EF32
:1035C0009093D4018093D30187EA90E00E944A103F
:1035D0008FEF9FEF9093D4018093D30188EB9BE012
:1035E0000E94F9110E940312DF91CF9108958C3A45
:1035F0009D4048F480EE9FEF9093D4018093D301D7
:1036000080EA90E0E3CF80EE97E09093D40180933E
:10361000D3018DE990E0DACFB0E0A0E0E2E1FBE198
:103620000C94AB396C01162F8091AD0198E6E92E10
:10363000FF24F39485FD02C0F12CE12C12FF05C09C
:103640008091AC0180FD4DC01C7F812F8370B82E0E
:1036500039F068E084E10E94080B8EE30E94E20EDC
:10366000D0E0C1E000E084E1A82E812F8270982E86
:10367000812F8071882E1870C114D10439F086E032
:10368000C816D10488F185E0C81AD1084F9938C00E
:103690008EE190E00E94F911D0E0C11127C0C0E096
:1036A00001E0112309F464C082E390E00E94F91163
:1036B000C4E101E04F990CC08EE190E00E94F91145
:1036C0004F9906C088EC90E00E94F911C1E003E038
:1036D000C1508AE090E00E94F911C111EBCFD0E017
:1036E00047C0D12CC12CB1CFC0E0D0CF4F99D7CF9C
:1036F000DF5FDB31D9F18AE090E00E94F911CDCF94
:1037000085E090E00E94F911DF5F8D2F6A2D0E9405
:103710000839911107C08091B8018230E0F08150E2
:103720008093B801D43621F5992051F068E084E106
:10373000C130A9F40E94080B80E20E94E20EC2E0B0
:10374000E114F10461F281E0E816F10469F181E02D
:10375000E81AF108C4CF882029F302DFE3CF0E94E2
:10376000080B8EE30E94E20EC1E0EACFC0E002E067
:103770008091AD0180FF1CC08091AD018E7F809350
:10378000AD01BB2039F068E084E10E94080B80E2C3
:103790000E94E20E073611F40E940312802FCDB76B
:1037A000DEB7ECE00C94C739D0E0C0E007E6E0CF2C
:1037B000C11162CFE6CFCF936091CF018091D1014B
:1037C00086131CC0C091CD01C0FF04C065E188EB29
:1037D0009BE022DFC1FF0EC0C091D101C23028F4AE
:1037E00062E081E00E94080B07C08C2F0E94750FD9
:1037F000C150F4CF0E94DD0FCF9108956F5FF1CFDC
:10380000CF93DF93EC01D7DFCE010E944A100E94D4
:103810004810DF91CF910895809196018232E9F4AA
:1038200087E890E00E944A10C6DF43E461E487E441
:103830000E94C1118091820190918301892B61F0D6
:1038400082E890E0DDDF609182017091830190E079
:1038500080E026E54DEFA9CD089584E199E00E942E
:103860004A10A9DF41E362E3E2CFEF92FF920F93A8
:103870001F93CF93DF931091970180917F01609107
:103880008001FF24F39410FF05C0982F862F692F25
:1038900032E0F32E9091960103E524E4E22E9F316D
:1038A00019F005E493E4E92E0E940A10EC01892B3B
:1038B00059F00E9448108E2D0E94E20E8F2D0E941A
:1038C000E20E802F0E94E20E13FD3FC08091840122
:1038D00090918501892B61F080E790E091DF609104
:1038E000840170918501072E000C880B990BE8DD8F
:1038F0008CE690E085DF609191017091920180915A
:1039000093019091940126E4409195014EDD8091C0
:10391000820190918301892B61F088E690E070DF4D
:10392000609182017091830190E080E024E04EEF8D
:103930003CDD209751F08DE199E062DF6A817B8167
:1039400090E080E026E54DEF30DDCDB7DEB7E6E074
:103950000C94CD39EF920F931F93CF93DF93EC012B
:1039600060918C0170918D0180918E0190918F01F9
:1039700027EFE22E02E310E020E030E040919001DA
:103980000E94341187FD0EC0CE013ADF60918C0198
:1039900070918D0180918E0190918F0121E4409171
:1039A000900103DDDF91CF911F910F91EF9008956A
:1039B000CF93C82F0E9428278C2F0E945F13CF918E
:1039C0000895B0E0A0E0E7EEFCE10C94A939C82F1F
:1039D0007B018091B9018093BC018091BA018093F1
:1039E000BD018091BB018093BE018091C401C130B3
:1039F00009F07AC19091BF01892B84B985B90E94E1
:103A000023270091B4011091B5018091C8010E9453
:103A10005F13081B190BC090B401D090B5018091C1
:103A2000CA010E945F13F601E81BF90BC090A301C5
:103A3000D090A401D1E088E49DE02DEF39E02E176D
:103A40003F0708F0BFC1809196018E3109F063C134
:103A500080919701982F9C238460992359F0C1305D
:103A600059F490917F018091B901981305C0C093DA
:103A7000960182E080939701809198018160809304
:103A80009801E016F10610F40E191F09D80120EF75
:103A90003BE247E050E00E949B399F0150E040E04C
:103AA0000E944839AAE0B0E00E949B3920E7C21A80
:103AB00025EED20A960150E040E00E9448396901A3
:103AC0007A019091C101C13009F02BC18091C501EB
:103AD00087B988B98091C001892B84B995B9809143
:103AE000C90166DF8C01A090B401B090B50180914E
:103AF000CA010E945F139501281B390B211531055E
:103B000011F421E030E0C801821B930BB9010E943F
:103B100021394B01B12CA12C2031310508F03FC0D7
:103B20008091C401C13009F014C19091C001982B5B
:103B300094B985B98091C9013BDF3C010091B40182
:103B40001091B5018091CA010E945F13F801E81B32
:103B5000F90B0091A1011091A201309711F4E1E05D
:103B6000F0E0D30120EF3BE247E050E00E949B39B8
:103B70009F0150E040E00E944839AAE0B0E00E9476
:103B80009B390057154E980150E040E00E9448399B
:103B900082169306A406B50610F449015A01D2E034
:103BA000C814D904EA04FB0418F046015701D1E017
:103BB000C0908801D0908901E0908A01F0908B013B
:103BC0008091BB0140E06091B901C13019F4682FC8
:103BD0008091BA010E9460140E940D11809197019A
:103BE00082FFCEC0009154011091550120915601E1
:103BF00030915701609191017091920180919301F0
:103C000090919401E0905301409195010E943411EC
:103C1000813009F4BBC08C2F84608093970115B864
:103C20008091C00184B98091C50187B988B980911C
:103C3000C901BEDE8430910508F4ADC0C090A10179
:103C4000D090A201F12CE12C30E9C30E3AE1D31E51
:103C5000E11CF11C19EF17B818B814B815B8DC013D
:103C600020EA36E841E050E00E949B39A701960126
:103C70000E94483920938C0130938D0140938E012E
:103C800050938F0110939001809288019092890146
:103C9000A0928A01B0928B01D0938101809154014E
:103CA00090915501A0915601B091570180939101D7
:103CB00090939201A0939301B0939401809153014A
:103CC000809395018091BB0180937E018091B90121
:103CD0009091BA01C13009F06DC080937F0190933B
:103CE000800110929F0152C09091C001892B84B92C
:103CF0008091C9015DDE8C018091CA010E945F1331
:103D0000FC01C090A101D090A20180ED97E021EDCF
:103D100033E0D2E094CE8EE180939601C093970178
:103D2000B0CE18B88091C60187B98091BF0185B91E
:103D3000892B84B90091B4011091B5018091C8011B
:103D400037DE081B190B8091CA010E945F139C018A
:103D5000D5CE9091BF01892B84B96090B401709049
:103D6000B5018091C80124DE681A790A8091CA01E0
:103D70000E945F13FC010091A3011091A401EDCEFC
:103D8000C814D904EA04FB0408F449CFCDB7DEB760
:103D9000EEE00C94C5398091C30184B98091C901CA
:103DA00007DE60EFC62E6BE2D62E67E0E62EF12C22
:103DB00018EF51CF90937F018093800181E0809331
:103DC0009F01E4CF21E6E216F10400F78017910786
:103DD000E8F68091C8010E945F137C018091C901BF
:103DE0000E945F13E81AF90A3AEFE316F10408F0AB
:103DF000CFC02FE1209396012D2F246120939701AE
:103E0000D13009F0BAC0A091A301B091A401A0578C
:103E1000B54E22E020939F014AE04E9D90014F9DB8
:103E2000300D11240E948639980150E040E00E9434
:103E300048398091A5019091A6018217930708F057
:103E4000A4C0281B390B30938301209382018D2F4E
:103E50008170982E0091BF01C091C50150E1852E5F
:103E6000D0FD06C00091C001C091C60141E1842E81
:103E7000C7708091CA01806480937C00F2D71AE0F9
:103E8000C12CD12C7601AA24AA9433E0B32EA89594
:103E9000682D8091C1010E9444148091C401802B3F
:103EA00084B9992009F482C086B18C23E9F704B95A
:103EB00080917A00806480937A0080917A0086FDF8
:103EC000FCCF809178009091790096958795969592
:103ED0008795992009F46EC0C80ED91EE11CF11C0B
:103EE0001150A9F6C701B6012AE030E040E050E0E9
:103EF0000E946A39A091B401B091B5010E949B392A
:103F000020E034E040E050E00E946A3930938501BF
:103F10002093840180E48093B101809198018160B5
:103F2000809398018091BB0180937E012091BA011A
:103F30009091B901D13009F045C090937F01209351
:103F4000800140E0609180010E94601480915401E2
:103F500090915501A0915601B09157018093910124
:103F600090939201A0939301B09394018091530197
:103F7000809395010E940D1109CFA091A101B091EC
:103F8000A201A057B54E23E045CF30E020E05BCF43
:103F900080E2809396018D2F84608093970188E062
:103FA000D13009F089E080939F0151CF86B18C23F5
:103FB000E9F37DCF9501281B390BC21AD30AE1081A
:103FC000F1088ECF20937F0190938001BACFB0E0AB
:103FD000A0E0EDEEFFE10C94AB39A8950E94BF1371
:103FE00080919601813009F490C018B88091C60183
:103FF00087B98091C8010E945F134C018091C20172
:1040000084B985B961E18091C1010E944414809115
:10401000C801CEDC5C018091BF0184B985B961E142
:104020008091C1010E9444148091C801C1DC8C01BF
:104030008091C9010E945F136C010E94BF1380919F
:104040009601813009F461C018B88091C60187B922
:104050008091C8010E945F137C0117B88091C5014F
:1040600088B987B915B88091C30184B960E180919E
:10407000C1010E9444148091C8019ADCEC01809136
:10408000C9010E945F13C817D90708F443C0C81BB1
:10409000D90B0C191D098091C00184B960E1809190
:1040A000C1010E9444148091C80182DC6C0180919E
:1040B000C9010E945F13C81AD90A17B8C016D106E1
:1040C00060F5C8018C199D097401E501893E934092
:1040D000E0F4C630D105C8F0CE018E199F09EC1668
:1040E000FD0618F0C7018C1B9D0B23E0E216F104BE
:1040F00018F08436910548F0C832D10598F0C8010F
:104100008759910989389141A8F1CDB7DEB7ECE024
:104110000C94C739D0E0C0E0BCCFC601801B910B26
:104120008601D4CF15B88091C00184B98091C501B2
:1041300088B987B98091C9013BDC7C018091BF01BE
:1041400084B98091C60188B987B98091C80130DCF3
:104150009C01C70164E170E00E942139C701861B00
:10416000970B8217930758F6E60EF71E2E153F059C
:1041700030F6CBCF80919601882311F08A3019F464
:1041800084E18093960180919B0196E0899FF001E4
:104190001124E35DFE4F9091B90190839091BA0193
:1041A000918313830283D583C4838F5F80939B01A4
:1041B000ACCF43E0481B461B0E94AD1015B8809160
:1041C000C00184B98091C50187B988B98091C901BE
:1041D000EFDB813D934008F0FACE0895A8E0B0E00F
:1041E000E4EFF0E20C94A539A89518B88091C601C7
:1041F00087B98091BF0184B985B98091C901D8DBA5
:104200004C018091C8010E945F139B838A8315B87B
:104210008091C20184B98091C801CADB459740F5FD
:104220008091C20185B98091C801C2DB6C01809187
:10423000C50187B988B915B88091C00184B980914A
:10424000C801B6DB2C018091C9010E945F135C019B
:104250008091C30184B98091C901AADB3C012A8104
:104260003B812033314140F452E6C516D10448F079
:104270002896E2E10C94C1396CE6C61663E1D606D5
:10428000B8F789EAA816B10408F071C096E2691679
:10429000710470F3D60120EF3BE247E050E00E944A
:1042A0009B39A091B401B091B501BB83AA839D0154
:1042B0002C193D0950E040E00E94483949015A015B
:1042C000AA81BB81A619B70920EF3BE247E050E085
:1042D0000E949B39930150E040E00E944839BEEDB6
:1042E000CB16B3E0DB0638F5F2E0880C991CAA1C6B
:1042F000BB1CFA95D1F7CA01B901680D791D8A1D59
:104300009B1D25E030E040E050E00E944839225AF1
:104310003E4F4F4F5F4FAAE0B0E00E949B394B01E8
:104320005C01B4E68B169104A104B10408F4ADC09D
:104330002FEF2F83D4C0EEED6E16E3E07E0670F40F
:10434000E2E0220F331F441F551FEA95D1F7C50144
:10435000B401620F731F841F951FD3CF280D391D21
:104360004A1D5B1D5695479537952795D0CF2A81D5
:104370003B812815390508F47FC04A145B0408F412
:104380007BC04091B4015091B5014217530721F40D
:10439000215031093B832A832091A3013091A4014C
:1043A0002057354EAA81BB81A819B9090E948639C8
:1043B000AA81BB814A1B5B0B9A0150E040E00E943E
:1043C000483969017A012091A1013091A201205759
:1043D000354ED201AA19BB090E948639950150E0D9
:1043E00040E00E944839EA81FB81EE3DF340B0F4A1
:1043F00062E0CC0CDD1CEE1CFF1C6A95D1F7CA01F3
:10440000B9016C0D7D1D8E1D9F1D25E030E040E043
:1044100050E00E94483949015A0183CF8EEDA81619
:1044200083E0B806F0F4283F94E2390791E04907A9
:10443000510550F4CA01B90142E0660F771F881F89
:10444000991F4A95D1F7DDCFA9E0B0E00E949B39D2
:104450006C0D7D1D8E1D9F1D2AE030E040E050E078
:10446000D8CFC20ED31EE41EF51E46015701B694E6
:10447000A7949794879455CFAFE8AA16A2E1BA06FD
:1044800008F058C0812C912C540181E00E94201921
:104490006C01F12CE12CA5019401220F331F441F64
:1044A000551FE5E08E169104A104B10420F4280DF7
:1044B000391D4A1D5B1DAAE0B0E00E949B396115C1
:1044C00071058105910521F464E670E080E090E0DB
:1044D000C616D706E806F90698F1FFEFFF8340916C
:1044E0009A0148875091B90159833090BA0160917F
:1044F00096016E8320E0A8852A1738F1BE81B0931B
:104500009601243609F4B4CEA33008F0B1CE27E0EA
:10451000A29FF0011124E85EFE4F30823981318381
:1045200083829482A582B6824F814283AF5FA0933B
:104530009A019ECE2AE0822E912CA12CB12CA5CFDF
:10454000460157013EEF3F83CACFC22ED12CA7E0D0
:10455000AC9DC001AD9D900D1124FC01E85EFE4FA5
:104560003F018081F9818F138FC0D30111968C9107
:1045700083118AC0E12C02E010E020E030E04F819E
:10458000C501B4010E9434118F3F09F072C0F301DC
:10459000F280238044805580768002E010E020E0A5
:1045A00030E04F2D622D742D852D972D0E943411F2
:1045B000682EFFEF8F1320C02F812F1102C06624B9
:1045C0006394EF80950184014F2D622D742D852D0C
:1045D000972D0E943411861509F445C037E03C9DA3
:1045E000F0013D9DF00D1124E85EFE4F8382948220
:1045F000A582B6824F814283240135017694679467
:104600005794479457E05C9DF0015D9DF00D112497
:10461000E85EFE4FF28083819481A581B6818A8312
:104620009B83AC83BD83EF80950184010419150938
:10463000260937094F2DBC01CD010E94341187FD99
:1046400010C095018401040D151D261D371DEF8036
:104650004F2D6A817B818C819D810E9434111816B7
:10466000ACF428EC48CFFF82822C942CA52CB72CDC
:10467000C3CFC501B40124E130E040E050E00E9426
:10468000483929013A01BECF2F5F35CF9AE09E838A
:1046900024E631CFCF93DF9340E00E94AD1017B8EE
:1046A0008091BF0185B99091C001892B84B9809117
:1046B000C8017ED9EC018091C9010E945F13AC0151
:1046C0002091B4013091B50136952795C9014E97D7
:1046D0008C179D0760F4225E3F4FC217D30738F452
:1046E0008417950720F481E04217530708F080E013
:1046F00014B8DF91CF910895CF9361E080E0CADFD5
:10470000C82F62E080E0C6DFC80F62E081E0C2DF50
:104710008C0FCF910895B0E0A0E0E1E9F3E20C94B2
:10472000A539382E212C882311F053E0252EE4DF03
:10473000281609F482C04090D3015090D4010E9401
:10474000DD0F8FEF9FEF9093D4018093D30133203F
:1047500009F479C043EB59E062E083E00E943B0F2B
:1047600080EE9FEF9093D4018093D3014AEA59E001
:1047700063E084E00E943B0F0E94F20C332009F4B6
:1047800051C081E9E82E89E0F82E0AE819E0CDE170
:10479000D0E09EE4692E712C28E5C22ED12C36E69D
:1047A000A32EB12C40E7842E912CF7018491813007
:1047B00009F452C0823009F052C08FE190E0D093EA
:1047C000E101C093E0019E01285F3F4F3093DF017C
:1047D0002093DE017092DD016092DC01D092DB015A
:1047E000C092DA010E94650BF8018491882381F060
:1047F0008130C1F18230C9F58FE190E0B092DD01E6
:10480000A092DC019092DB018092DA010E94650B9C
:10481000FFEFEF1AFF0A2F960F5F1F4FC638D10523
:1048200009F0C3CF5092D4014092D30165DF281222
:104830001FC088EC90E00E94F91181E0CDB7DEB78F
:10484000E2E10C94C13942EA59E062E083E00E945F
:104850003B0F48E959E08CCF80E098EFB0CF80EE75
:104860009FEFADCF80E098EFC9CF80EE9FEFC6CF2E
:1048700060E184E690E00E940C1B91E03912D6CFF3
:104880008823A1F280E0DACFCF93C82FDFD28C2F1C
:104890000E945F13CF910895B0E0A0E0E2E5F4E25A
:1048A0000C94AC3990919601913009F4C5C0C62E94
:1048B000D82EA8950E94AD1015B88091C00184B97A
:1048C0008091C50187B988B960E18091C1010E94DA
:1048D00044148091C9016CD8EC01813D934048F0AB
:1048E00061E18091C1010E9444148091C90160D8A6
:1048F000EC01C031D10508F0A4C08091980181116C
:104900008FC08091C00184B915B88091C50187B965
:1049100088B99ED28091C0019091C101892B84B940
:104920008C2D46D88F359D4018F0BE0182E049D8C5
:1049300080919801811174C08091C60187B918B81F
:104940008091BF019091C101892B84B985B98D2DCA
:104950002FD88034964008F063C08091CA010E942D
:104960005F138C018091C9010E945F137C0160E19B
:104970008091C1010E9444148091C80119D86C0132
:1049800015B866D28091BF0185B98091C80110D851
:1049900020E4C21626E0D20608F015C28133914108
:1049A00008F411C214B815B88091C60188B950D264
:1049B0008091BF0184B98091C8010E94D81C853FB5
:1049C000910508F000C260E18091C1010E94441489
:1049D0008091C8010E94D81C6C018DEDC81682E040
:1049E000D80608F0C1C182E28093960180919801B7
:1049F0008160809398018AE080939F018091BB0140
:104A000080937E018091B90180937F018091BA01EA
:104A1000809380010E191F09109383010093820176
:104A200080919601882319F08A3009F0D6C1D6DB2F
:104A300017B818B814B815B8CDB7DEB7EBE00C94BA
:104A4000C83980919801811177C198EEA92EBB24B5
:104A5000B394CB3E31E0D30718F488E2A82EB12CF2
:104A60008091C0019091C401892B84B98091C901C2
:104A70000BDF8C018091C40185B98091C90104DFED
:104A80007C01E01AF10A0A0D1B1D0817190708F02E
:104A900077C08091C10184B985B918B88091C601E9
:104AA00087B98091CA01F0DE17B8992493948C3BA2
:104AB000924008F0912C8091C50187B98091CA017C
:104AC000E3DE8C018091C8010E945F1317B8801744
:104AD000910738F4081B190B023C114010F499247B
:104AE00093948091C60188B987B98091BF01909154
:104AF000C401892B84B915B88091C801C5DE8C0129
:104B00008091C40185B98091C801BEDE801B910BE4
:104B10008C0118B88091C60187B98091BF0190912E
:104B2000C401892B84B985B98091CA01ADDE88346E
:104B30009F40F8F089E18093970184E080939F0182
:104B40008FE1809396018091980181608093980114
:104B50004091BB0140937E019091BA018091B901CF
:104B60000E151F0508F468C090937F0180938001A3
:104B700067C0911005C089E28093970186E0DECF7F
:104B800018B88091C60187B98091BF019091C40186
:104B9000892B84B985B98091C80176DE8C0180911A
:104BA000BF0185B98091C8016FDE7801E81AF90A62
:104BB000A80EB91EA016B10608F0BEC08091C101B2
:104BC00084B915B88091C60187B988B98091CA01A6
:104BD0005BDE5C0118B88091C50187B98091C00186
:104BE0009091C401892B84B985B98091C9014CDEAB
:104BF0008C018091C00185B98091C90145DE081BF7
:104C0000190B15B88091C50188B987B98091CA017F
:104C10003BDE813D934028F48AE18093970185E053
:104C20008DCF8DECA81680E1B80608F085C08AE229
:104C30008093970187E082CF80937F0190938001DA
:104C4000C70162E370E00E942139C701861B970B00
:104C50000817190750F06E0D7F1D6017710728F0B7
:104C60008091970180648093970160918001809189
:104C70007F010E94AD108091C6019091C701892BE0
:104C800087B99091BF0194B92091970120FF5BC033
:104C900018B895B90091B4011091B5018091C8017F
:104CA000F3DD9801281B390BC9014091A3015091F4
:104CB000A4014057554E9C01A0E1B7E20E948639FD
:104CC0009A0150E040E00E94483920938C013093D3
:104CD0008D0140938E0150938F018AEF8093900154
:104CE0008091C3019091C401892B84B99091C50131
:104CF00097B92091970120FF30C015B898B9A7D077
:104D00008091C9010E945F138C018091CA010E94A9
:104D10005F13801B910B90938701809386012091F4
:104D2000970120FF1DC080549D4E813C924120F090
:104D30001092870110928601C13D33E0D30708F439
:104D4000DCCD45D96DCE88B915B88091C8019CDD00
:104D50004091A1015091A201ACCF85B918B8CFCF35
:104D6000813C924128F7E8CF8091BF0185B970D08E
:104D700015B88091C8010E94D81C853F910518F58F
:104D800080919601813229F480919801816080930D
:104D9000980181E2809396018BE080939F0180913E
:104DA0008801909189018C159D0508F041CEC601BE
:104DB000B0E0A0E08093880190938901A0938A01DC
:104DC000B0938B011BCE80919601813209F430CED5
:104DD000BE0181E00E94E11C23CE8F3109F028CE74
:104DE0009091970194FF24CE80917F016091800182
:104DF00090FD03C0962F682F892F0E940A10892BDF
:104E000009F416CE109296011092970180919801A4
:104E10008E7F809398010CCE1F920F920FB60F9247
:104E200011241092B1000F900FBE0F901F90189593
:104E300003D002D001D000D000D003D002D001D0E6
:104E400000D0A89500D003D002D001D000D000D06F
:104E500003D002D001D000D000D003D002D001D0C6
:104E600000D000D003D002D001D000D000D003D0B9
:104E700002D001D000D000D00000000000000000EF
:104E800000000895A0E5B0E0E8E4F7E20C94A5394D
:104E900080E48AB98BB980E886BF9CE496BF809392
:104EA000610091E090936100000000008093F200A7
:104EB00087E98093F2008FEF8EBB8EB3811170C0B3
:104EC0008FEF8EBB8EB381116EC080E88093F200AD
:104ED00087EB8093F2008FEF8EBB8EB3811166C09B
:104EE0008FEF8EBB8EB3811164C080E88093610028
:104EF0001092610084EF91E00E94EF1180E185BF84
:104F000087E880937A0084B7887094B7977F94BFBE
:104F10000FB6F894A8959091600098619093600006
:104F2000109260000FBE1092AC0192E09093AD0120
:104F300096E09093AE019AB194619AB99BB19B7E31
:104F40009BB99091AC0198609093AC019AB1936039
:104F50009AB99AB197619AB99BB1987E9BB95898C2
:104F6000882351F10E94DD0F8FEF9FEF9093D401C2
:104F70008093D3018CE799E00E944A100E94DB1BCA
:104F800084E799E00E944A1080ED97E00E94F911B1
:104F90005E9890E080E0C05BDF4FE2E10C94C139A5
:104FA0008EB3815089CF8EB381508BCF8EB3815019
:104FB00093CF8EB3815095CF10E04F9BADC18091C0
:104FC000AC0180FF05C08091AD0180628093AD018E
:104FD00080E590E00E94EF11589A86E990E00E94E7
:104FE000EF1181E00E944B0B86E990E00E94EF11E7
:104FF00086E30E944B0B599A80E60E94360B8AE3A7
:105000000E944B0B599A85E00E94360B1092E101E9
:105010001092E0018FE990E09093DF018093DE0130
:105020001092DD011092DC018FE790E09093DB019C
:105030008093DA010E944D0B83E790E00E94EF110C
:1050400081E10E944B0B88E790E00E94EF1184E120
:105050008093D00188E08093D10184E08093D601D1
:1050600082E08093D701EE24EA94FE2CF092CC01EA
:10507000E092CB010E94DD0F89E20E944B0B10925F
:10508000CD01F092D401E092D301133009F050C168
:105090000E9420110E94DD0F2FEF3FEF48E264E6EF
:1050A00079E08BE699E00E943A0E2FEF37E04CE46E
:1050B00070E060E084E599E00E943A0E2FEF37E05F
:1050C0004EE570E060E083E499E00E943A0E8FEFD5
:1050D0009FEF9093D4018093D30160E080E197E249
:1050E0000E940C1B89E18093AF0181E08093B001A5
:1050F0008093B10189E893E19093B5018093B40165
:1051000088E19FE00FB6F894A895809360000FBEE9
:1051100090936000789410929601109297011092EB
:1051200098011092990110929B0110929A0110928D
:1051300081011092830110928201109285011092D8
:1051400084011092870110928601109288011092BA
:10515000890110928A0110928B0110928C01109299
:105160008D0110928E0110928F0110920901109200
:10517000080110920B0110920A01F3E0F093D5019F
:1051800017B882E08093CD010E94DD0F8091CD00A1
:105190008093C8008091A801082E000C990B9C5F99
:1051A0009093B3018093B20189E18093AF010E9493
:1051B000B01A0091B6011091B701C090D301D09000
:1051C000D4018FEF9FEF9093D4018093D30145EEEC
:1051D00050E062E084E00E943B0F4FED50E063E05E
:1051E00082E00E943B0F63E087E00E94080B083ECC
:1051F00023E0120708F0CEC080EE9FEF9093D40119
:105200008093D30143ED50E063E087E00E943B0FC1
:105210000E94F20CD092D401C092D30184EF91E0AD
:105220000E94F9110E94BF1380919601813009F408
:1052300052C042E061E080E02FDB42E060E081E0CC
:105240002BDB41E062E080E027DB41E060E082E0D0
:1052500023DB40E062E081E01FDB40E061E082E0D0
:105260001BDB809199018823E1F09091980190FDDA
:1052700018C091FD04C0909196019E3190F48093E6
:1052800096018091050180937E01809106018093B3
:105290007F0180910701809380018091A00180931C
:1052A0009F0180919601882311F08A30A1F40E9419
:1052B000481083E40E94E20E40E060E082E00E9439
:1052C000601441E061E082E00E94601442E060E02E
:1052D00081E00E9460140E94DD0F83E08093CD0185
:1052E000809196018E3109F4BFC308F082C18A30E3
:1052F00009F4ECC408F0B5C0813009F46EC20E9414
:105300004E0F8AC21F5F153639F413E08091AC014D
:1053100081608093AC0153CE84E190E00E94F9114A
:105320004F9BF0CF103110F411E049CE12E0EECFD8
:105330000E9413118093AB0120E0E22E20E0F22EB8
:1053400001EA11E0C7010E94E338D8018D938D0175
:10535000BFEFEB1AFB0AE1E00C3A1E0799F70E9437
:1053600013119091AB01992309F494CE891709F494
:1053700091CE0E94DD0F82EB90E00E944A100E94C5
:10538000DB1B84E799E00E944A1088E893E10E94C1
:10539000F9117ECEF4E6BF2E083680E1180708F03A
:1053A00032C0053E9CE0190708F459C021E030E006
:1053B000F901EE0FFF1FEB53FF4FE590F4900E1530
:1053C0001F0508F446C0D9011197FD01EE0FFF1F1C
:1053D000EB53FF4F45915491A254BF4FFD01A4914F
:1053E000F901E254FF4FB49098012E193F09AB190F
:1053F000BB0B0E9495394E195F099A0150E040E0BD
:105400000E944839B20EC8016AE070E00E9421395A
:1054100090E080E026E54EEF0E94D5190E944810EA
:10542000F8E280EE97E0FB1538F024E180EE9FEF84
:105430002B1510F080E098EF9093D4018093D30166
:105440006B2D70E090E080E025E240E00E94D519ED
:10545000DFCE2F5F3F4F2730310509F0A9CFB12CA8
:10546000D2CF8B3009F4D0C0843109F048CF80907E
:10547000D3019090D4018FEF9FEF9093D40180934C
:10548000D30146EF50E062E082E00E943B0F1091B2
:105490009B01123048F00E94481088E70E94E20EFB
:1054A00080E3810F0E94E20E63E082E00E94080B1D
:1054B00085E50E94E20E86E60E94E20E8DE30E94E0
:1054C000E20E60912F017091300190E080E026E5BE
:1054D0004DEF0E94D51960912E0180912D010E94FF
:1054E000BF0C86E490E09093E1018093E00188E4B2
:1054F00090E09093DF018093DE010CE410E01093C4
:10550000DD010093DC013CE5E32EF12CF092DB01A0
:10551000E092DA0180EE97E00E94650B89E490E06A
:105520009093E1018093E0011093DF010093DE018D
:105530008EE490E09093DD018093DC014AE5C42E77
:10554000D12CD092DB01C092DA0180EE97E00E946C
:10555000650B8DE490E09093E1018093E00180E59C
:1055600090E09093DF018093DE019093DD018093C2
:10557000DC0158E5A52EB12CB092DB01A092DA0136
:1055800080EE97E00E94650B81E590E09093E10149
:105590008093E00184E590E09093DF018093DE0149
:1055A00082E590E09093DD018093DC0186E590E058
:1055B0009093DB018093DA0180EE97E00E94650B07
:1055C000B092E101A092E001D092DF01C092DE0131
:1055D0001093DD010093DC01F092DB01E092DA012F
:1055E00080EE97E00E94650B9092D4018092D301E7
:1055F00013C1803209F458C308F40DC3833208F094
:105600007ECE0E940C1C08C10091540110915501DE
:1056100020915601309157016091630170916401AE
:105620008091650190916601E09053014091620183
:105630000E943411E1E5CE2EE1E0DE2E813021F42E
:1056400070E6C72E71E0D72ED60113960D911D91ED
:105650002D913C9116976091720170917301809128
:105660007401909175011296EC90409171010E9425
:105670003411813021F46FE6C62E61E0D62EC601CA
:105680000E948B178C01E090D301F090D4018FEF32
:105690009FEF9093D4018093D30148E551E062E0FD
:1056A00082E00E943B0F63E082E00E94080B83E4EB
:1056B0000E94E20E8DE30E94E20EF6016381748186
:1056C0008581968126E442810E94D5190F3F1007FB
:1056D00069F043E551E064E082E00E943B0FB801CD
:1056E00090E080E024E04EEF0E94D519F60183851A
:1056F0009485A585B685892B8A2B8B2B89F04EE462
:1057000051E067E082E00E943B0FD6011B966D914D
:105710007D918D919C911E9721E448EF0E94D519AF
:10572000F601618180810E94BF0C85E490E0909336
:10573000E1018093E001BAE4CB2ED12CD092DF01BD
:10574000C092DE0183E590E09093DD018093DC015F
:1057500005E510E01093DB010093DA018FED94E68C
:105760000E94650B1093E1010093E0018AE590E04F
:105770009093DF018093DE018FED94E60E94650B2C
:105780008BE490E09093E1018093E0018EE490E05F
:105790009093DF018093DE01D092DD01C092DC01A5
:1057A0008EE590E09093DB018093DA0180EE97E044
:1057B0000E94650B82E590E09093E1018093E00107
:1057C0001093DF010093DE0180EE97E00E94650BED
:1057D000F092D401E092D3011FC0809197018130F3
:1057E00009F0ABC08DEE90E00E944A100E94DB1BD6
:1057F00080919C018F5C0E94E20E8AE30E94E20E7F
:105800000E94481060919D0170919E0190E080E09F
:1058100026E54DEF0E94D519809196018E3108F44E
:105820008FC00091D501002309F48AC08091D7016F
:105830009091D101891708F083C01091D0011031E7
:1058400020F0800F891708F440C59093CF010E9483
:10585000DB1B13E002E01093D8010093D90160E054
:1058600080917E010E94261061E080917F010E945C
:10587000261062E0809180010E942610E090D30102
:10588000F090D40180EE9FEF9093D4018093D301E8
:10589000602F812F0E94080B00919F01F0E80F9F5D
:1058A000800111240C591E4F6091CF018091CE01CF
:1058B0000E94080B8091E0019091E1014D96909338
:1058C000DF018093DE018091DC019091DD014F9634
:1058D0009093DB018093DA010E944D0BA090D301DD
:1058E000B090D4018CE20E944B0B480120E8820E5C
:1058F000911C6801F4E0CF0ED11CFEE16F2E762CD6
:1059000088E0861510F4A8E07A2E6718F801549004
:105910007110DFC40F5F1F4F0C151D0581F70815AF
:10592000190539F76091D9016F5F81E00E94080B7A
:10593000F092D401E092D30103C0823009F4DFCCAD
:105940001092CD01539810E000E0D12CC12CF12C25
:10595000E12C5AE0A52EB12C69E9462E512C75E0B8
:10596000872E912CE2E07E2E4B9949C5312C612C7B
:10597000212C89B183FB882780F98211B4C46394F8
:1059800071DAA89582E4381631F09FEE961588F703
:10599000A3E0A31548F7E4E9F0E0F093E101E09318
:1059A000E0015092DF014092DE019092DD01809291
:1059B000DC01B092DB01A092DA0180E098EF0E9456
:1059C000650BF2E43F124DC08A818654893208F09B
:1059D00048C089818E3108F444C022E0622E8238AA
:1059E00010F06624639427961FAE279726961FAE65
:1059F000269725961FAE259724961FAE2497FE0165
:105A0000319620E0938182818450813150F58CEF72
:105A1000890F8D3230F59531B0F0A22FA695A6955D
:105A2000A69583E490E08C0F9D1F8A0F911DDC01E9
:105A3000822F877041E050E001C0440F8A95EAF759
:105A40008C91842B8C932F5F32962032D9F6269638
:105A50008FAD269727969FAD279789278F3F09F40B
:105A600066C408EB1BE080CFA0909701F090800106
:105A7000D0907E01E0907F01BF2CCC24C3940DE038
:105A800011E0A0FE08C0BE2CEF2CFD2CDE2C22E085
:105A9000C22E01E111E082E399E00E944A100E94C7
:105AA0004810C8010E944A10A2FE03C08BE20E9467
:105AB000E20E0E94DB1B45E463E482E40E94C11114
:105AC0006B2D8E2D0E940A10892B59F00E944810D0
:105AD00083E40E94E20E8C2D0E94E20E85E40E9477
